:100000000C9434000C9451000C9451000C94510049
:100010000C9451000C9451000C9451000C9451001C
:100020000C9451000C9451000C9451000C9451000C
:100030000C9451000C9451000C9451000C945100FC
:100040000C9451000C9451000C9451000C945100EC
:100050000C9451000C9451000C9451000C945100DC
:100060000C9451000C94510011241FBECFEFD8E026
:10007000DEBFCDBF11E0A0E0B1E0E2E7F6E702C0ED
:1000800005900D92AA34B107D9F721E0AAE4B1E0B6
:1000900001C01D92A035B207E1F70E9407300C9411
:1000A000A83A0C9400002F923F924F925F926F9269
:1000B0007F928F929F92AF92BF92CF92DF92EF92F8
:1000C000FF920F931F93CF93DF93CDB7DEB7C85442
:1000D000D1090FB6F894DEBF0FBECDBF20E030E0EF
:1000E00040E85FE32B013C01C301B2010E9494325E
:1000F0002AE037ED43E25CE34B015C01C501B4014A
:100100000E9406336B017C01C701B6010E9478335F
:1001100026966FAF269727967FAF2797212C312CF5
:10012000C12CD12CE12CF12C28961FAE28972996B2
:100130001FAE299710E80FE327968EAD9FAD279746
:100140002816390664F12296CFAE22972396DFAEA9
:1001500023972496EFAE24972596FFAE25972596F4
:100160006CAD7DAD8EAD9FAD2597C85BDF4F0FB6F3
:10017000F894DEBF0FBECDBFDF91CF911F910F91DD
:10018000FF90EF90DF90CF90BF90AF909F908F90B7
:100190007F906F905F904F903F902F90089528969A
:1001A0008FAD2897898329969FAD29979A831B83C2
:1001B0000C8329813A814B815C816AE077ED83E28F
:1001C0009CE30E9406332B013C012AE037ED43EA11
:1001D0005BE328968FAD28978D8329969FAD29974D
:1001E0009E831F8308876D817E818F8198850E9401
:1001F000953269877A878B879C8729853A854B85D5
:100200005C856AE077ED83E29CE30E9406334B0154
:100210005C012AE037ED43E25CE328968FAD289736
:100220008D8729969FAD29979E871F87088B6D859F
:100230007E858F8598890E94953228966FAF289782
:1002400029967FAF2997182F092F898A9A8AAB8A16
:10025000BC8A29893A894B895C898D8A9E8AAF8AB2
:10026000B88E6D897E898F89988D0E9495324B0159
:100270005C01698F9A8E8B8FBC8E298D3A8D4B8D48
:100280005C8D4D8E5E8E6F8E78A26D8D7E8D8F8D86
:1002900098A10E94953289A29AA2ABA2BCA229A1E0
:1002A0003AA14BA15CA16DA37EA38FA398A76DA1DA
:1002B0007EA18FA198A50E9495324B015C012896E2
:1002C0008FAD289789A729969FAD29979AA71BA735
:1002D0000CA729A53AA54BA55CA56AE077ED83E2BA
:1002E0009CE30E9406336DA77EA78FA798AB2DA530
:1002F0003EA54FA558A989AA9AAAABAABCAA69A9E2
:100300007AA98BA99CA90E94953220E030E040ECAC
:1003100050E46DAB7EAB8FAB98AF6DA97EA98FA972
:1003200098AD0E94063369AF7AAF8BAF9CAF29AD11
:100330003AAD4BAD5CADCDAEDEAEEFAE2196FFAECD
:10034000219721966CAD7DAD8EAD9FAD21970E941A
:1003500095326B017C018FEF281A380AEDCE2F926F
:100360003F924F925F926F927F928F929F92AF9245
:10037000BF92CF92DF92EF92FF920F931F93CF9392
:10038000DF9300D000D0CDB7DEB78C0122E030E0A3
:100390003C832B83212C312C30E839838FE38A83F3
:1003A0002B813C8102171307E4F46101E980FA8094
:1003B000C701B6010F900F900F900F90DF91CF9172
:1003C0001F910F91FF90EF90DF90CF90BF90AF9073
:1003D0009F908F907F906F905F904F903F902F9065
:1003E00008952B813C81B901330F880B990B0E9432
:1003F000B0334B015C01A5019401210169807A8031
:10040000C301B2010E9465341B0189839A838B81E9
:100410009C8101969C838B83C3CF4F925F926F9296
:100420007F928F929F92AF92BF92CF92DF92EF9284
:10043000FF920F931F93CF93DF93CDB7DEB72C9727
:100440000FB6F894DEBF0FBECDBF8B019C01C90172
:10045000B8018B019C0135952795179507955FEDA0
:10046000C52E59E5D52E57E3E52E5FE5F52EC01ACA
:10047000D10AE20AF30A20E030E040E05FE30E94A4
:100480006534A701960169837A838B839C83698194
:100490007A818B819C810E946534A70196012B0192
:1004A0003C01C301B2010E9465344B015C01A5010E
:1004B000940160E070E080EC9FE30E949432A70119
:1004C00096016D837E838F8398876D817E818F8176
:1004D00098850E94653469877A878B879C876985B0
:1004E0007A858B859C852C960FB6F894DEBF0FBE5F
:1004F000CDBFDF91CF911F910F91FF90EF90DF90D3
:10050000CF90BF90AF909F908F907F906F905F90B3
:100510004F9008954F925F926F927F928F929F9229
:10052000AF92BF92CF92DF92EF92FF920F931F9301
:10053000CF93DF93CDB7DEB72A970FB6F894DEBF1F
:100540000FBECDBF8B018A8799872BED3FE049EC29
:1005500050E44B01AA84B984C501B4010E946034FF
:1005600087FF2DC020E030E0A9010D831E838A851E
:100570008F83898588876D817E818F8198850E9490
:10058000013387FD28C06801EA84F984C701B601F8
:100590002A960FB6F894DEBF0FBECDBFDF91CF9184
:1005A0001F910F91FF90EF90DF90CF90BF90AF9091
:1005B0009F908F907F906F905F904F9008952BED5C
:1005C0003FE049EC50E428016A847984C301B20118
:1005D0000E949432B7CF2BED3FE049EC50E4098301
:1005E0001A838A858B8389858C8369817A818B8143
:1005F0009C810E9495328B018A879987B3CF2F9275
:100600003F924F925F926F927F928F929F92AF92A2
:10061000BF92CF92DF92EF92FF920F931F93CF93EF
:10062000DF93CDB7DEB7C25DD1400FB6F894DEBF21
:100630000FBECDBF8B019C01C901B8010E948A0287
:100640006B8B7C8B8D8B9E8B912C812C20E829834E
:100650008FE38A83A12CB12C212C312C00E010E0F7
:1006600018861F823B892C899D898E89C154DE4F53
:100670003883CF5BD140C054DE4F2883C05CD1406B
:10068000CF53DE4F9883C15CD140CE53DE4F888379
:10069000C25CD140C154DE4F288139814A815B81DF
:1006A000CF5BD14098858F81CD53DE4F0883C35CEB
:1006B000D140CC53DE4F1883C45CD140CB53DE4FC6
:1006C0009883C55CD140CA53DE4F8883C65CD14055
:1006D000CD53DE4F688179818A819B81C35CD14093
:1006E0000E94013387FD36C0C953DE4FA882C75C24
:1006F000D140C853DE4FB882C85CD140C753DE4FEB
:100700002882C95CD140C653DE4F3882CA5CD140D2
:10071000C953DE4F688179818A819B81C75CD14052
:10072000CE52DE4F0FB6F894DEBF0FBECDBFDF91C5
:10073000CF911F910F91FF90EF90DF90CF90BF90DE
:10074000AF909F908F907F906F905F904F903F9071
:100750002F9008952AE037ED43E25CE398858F817E
:100760000F8B188F998F8A8F6F89788D898D9A8DCD
:100770000E9495326B837C838D839E833B892C8979
:100780009D898E893B8F2C8F9D8F8E8F2B8D3C8DDD
:100790004D8D5E8D762F6C819D818E817F8F68A3BC
:1007A00099A38AA36F8D78A189A19AA10E94603430
:1007B00018160CF0E0C50BA31CA328852DA38F8170
:1007C0008EA32BA13CA14DA15EA17B896C899D8943
:1007D0008E897FA368A799A78AA76FA178A589A505
:1007E0009AA50E9494326BA77CA78DA79EA7CBA445
:1007F000DCA4EDA4FEA4A70196019FA688AA898186
:1008000089AB8A818AAB6FA578A989A99AA90E9428
:1008100065346F87788B898B9A8B2601370177FA3D
:10082000709477F87094ABAABCAA2DAA3EAA2BA903
:100830003CA94DA95EA9C301B2010E946534C5530C
:10084000DE4F6883CB5CD140C453DE4F7883CC5CF1
:10085000D140C353DE4F8883CD5CD140C253DE4FBD
:100860009883CE5CD14020E030E040E05FE36FABA6
:1008700078AFC353DE4F8881CD5CD14089AF9AAF4A
:100880006FA978AD89AD9AAD0E9465349BAE8CAEF0
:1008900029812DAF2A812EAF2BAD3CAD4DAD5EAD84
:1008A0006FAF21967FAF219722968FAF2297239625
:1008B0009FAF239723966CAD7DAD8EAD9FAD2397F3
:1008C0000E949532A701960124966FAF2497259632
:1008D0007FAF259726968FAF269727969FAF2797AE
:1008E00027966CAD7DAD8EAD9FAD27970E94653488
:1008F0006B837C838D839E8320E030E040E05FE368
:100900008F8528968FAF2897888929968FAF29974A
:1009100089892A968FAF2A978A892B968FAF2B9732
:100920002B966CAD7DAD8EAD9FAD2B970E9465343F
:100930002C96AFAE2C972D96BFAE2D972E962FAE40
:100940002E972F963FAE2F972F962CAD3DAD4EADE7
:100950005FAD2F9760966FAF609761967FAF61979D
:1009600062968FAF629763969FAF639763966CAD05
:100970007DAD8EAD9FAD63970E949532A30192012C
:1009800064966FAF649765967FAF659766968FAFF5
:10099000669767969FAF679767966CAD7DAD8EAD96
:1009A0009FAD67970E9465346F83788789879A87A0
:1009B00020E030E040E05FE368966FAF68976996AB
:1009C0007FAF699789856A968FAF6A976B969FAF5D
:1009D0006B976B966CAD7DAD8EAD9FAD6B970E94A6
:1009E00065346C969FAE6C976D968FAE6D9729812E
:1009F0006E962FAF6E972A816F962FAF6F976F9677
:100A00002CAD3DAD4EAD5FAD6F97A0966FAFA0978B
:100A1000A1967FAFA197A2968FAFA297A3969FAF03
:100A2000A397A3966CAD7DAD8EAD9FADA3970E94AD
:100A30009532A7019601A4966FAFA497A5967FAFB4
:100A4000A597A6968FAFA697A7969FAFA797A796AD
:100A50006CAD7DAD8EAD9FADA7970E9465346B8761
:100A60007C878C0120E030E040E05FE38B81A8963A
:100A70008FAFA8978C81A9968FAFA9978D81AA96E1
:100A80008FAFAA978E81AB968FAFAB97AB966CADBD
:100A90007DAD8EAD9FADAB970E946534AC96AFAE89
:100AA000AC97AD96BFAEAD97AE962FAEAE97AF9664
:100AB0003FAEAF97AF962CAD3DAD4EAD5FADAF97AE
:100AC000E0966FAFE097E1967FAFE197E2968FAF48
:100AD000E297E3969FAFE397E3966CAD7DAD8EAD65
:100AE0009FADE3970E949532A3019201E4966FAF08
:100AF000E497E5967FAFE597E6968FAFE697E796A2
:100B00009FAFE797E7966CAD7DAD8EAD9FADE79754
:100B10000E946534CE52DE4F6883C25DD140CF5211
:100B2000DE4F7883C15DD1408D879E872B85E89607
:100B30002FAFE8978C85E9968FAFE997EA960FAFCC
:100B4000EA97EB961FAFEB97EB962CAD3DAD4EAD14
:100B50005FADEB97EC96AFAEEC97ED96BFAEED9731
:100B6000EE962FAEEE97EF963FAEEF97EF966CAD09
:100B70007DAD8EAD9FADEF970E949532A30192019E
:100B8000C158DF4F6883CF57D040C058DF4F7883BC
:100B9000C058D040CF57DF4F8883C158D040CE5780
:100BA000DF4F9883C258D040C158DF4F68817981A8
:100BB0008A819B81CF57D0400E946534562E472EA4
:100BC000C153DE4F8883CF5CD140C053DE4F988342
:100BD000C05DD1402B81CD57DF4F2883C358D04013
:100BE0008C81CC57DF4F8883C458D0402D81CB57A0
:100BF000DF4F2883C558D0408E81CA57DF4F888386
:100C0000C658D040CD57DF4F288139814A815B815A
:100C1000C358D0408B81C957DF4F8883C758D04015
:100C20008C81C857DF4F8883C858D0408D81C75703
:100C3000DF4F8883C958D0408E81C657DF4F8883E5
:100C4000CA58D040C957DF4F688179818A819B811A
:100C5000C758D0400E9495322F85C557DF4F288353
:100C6000CB58D0402889C457DF4F2883CC58D04078
:100C70002989C357DF4F2883CD58D0402A89C257CE
:100C8000DF4F2883CE58D040C557DF4F28813981A8
:100C90004A815B81CB58D040C157DF4F6883CF5822
:100CA000D040C057DF4F7883C059D040CF56DF4F78
:100CB0008883C159D040CE56DF4F9883C259D04067
:100CC000C157DF4F688179818A819B81CF58D0409D
:100CD0000E9495323B018B839C838B85CD56DF4FE1
:100CE0008883C359D0402C85CC56DF4F2883C45904
:100CF000D040CB56DF4F0883C559D040CA56DF4F8E
:100D00001883C659D040CD56DF4F288139814A819A
:100D10005B81C359D040C956DF4F8883C759D04043
:100D20008C85C856DF4F8883C859D040C756DF4FDF
:100D30000883C959D040C656DF4F1883CA59D040DE
:100D4000C956DF4F688179818A819B81C759D0401C
:100D50000E949532C556DF4F6883CB59D040C456A8
:100D6000DF4F7883CC59D040C356DF4F8883CD59AD
:100D7000D040C256DF4F9883CE59D040C556DF4F82
:100D8000288139814A815B81CB59D040C156DF4FE0
:100D90006882CF59D040C056DF4F7882C05AD040C9
:100DA0008B81CF55DF4F8883C15AD0408C81CE557F
:100DB000DF4F8883C25AD040C156DF4F68817981A6
:100DC0008A819B81CF59D0400E9495323B018C0192
:100DD000CE52DE4F2881C25DD140CD55DF4F2883F2
:100DE000C35AD040CF52DE4F8881C15DD140CC552F
:100DF000DF4F8883C45AD0402D85CB55DF4F2883E1
:100E0000C55AD0408E85CA55DF4F8883C65AD04018
:100E1000CD55DF4F288139814A815B81C35AD0404B
:100E2000C955DF4F9882C75AD040C855DF4F8882D6
:100E3000C85AD0408981C755DF4F8883C95AD040EE
:100E40008A81C655DF4F8883CA5AD040C955DF4FC3
:100E5000688179818A819B81C75AD0400E949532EE
:100E6000A7019601C555DF4F6883CB5AD040C455C2
:100E7000DF4F7883CC5AD040C355DF4F8883CD5A9B
:100E8000D040C255DF4F9883CE5AD040C555DF4F72
:100E9000688179818A819B81CB5AD0400E946534D8
:100EA000C155DF4F6883CF5AD040C055DF4F78839C
:100EB000C05BD040CF54DF4F8883C15BD040CE545D
:100EC000DF4F9883C25BD040C155DF4F2881398105
:100ED0004A815B81CF5AD040CD54DF4F6882C35BDB
:100EE000D040CC54DF4F7882C45BD040CB54DF4F2E
:100EF0000883C55BD040CA54DF4F1883C65BD0401F
:100F0000CD54DF4F688179818A819B81C35BD0405A
:100F10000E94953220E030E040EC50E4C954DF4FAD
:100F20006883C75BD040C854DF4F7883C85BD0402C
:100F3000C754DF4F8883C95BD040C654DF4F9883C6
:100F4000CA5BD040C954DF4F688179818A819B8117
:100F5000C75BD0400E940633C554DF4F6883CB5B2C
:100F6000D040C454DF4F7883CC5BD040C354DF4FB4
:100F70008883CD5BD040C254DF4F9883CE5BD04096
:100F8000C554DF4F288139814A815B81CB5BD040DA
:100F9000C154DF4FA882CF5BD040C054DF4FB8822E
:100FA000C05CD040CF53DF4F2882C15CD040CE53CD
:100FB000DF4F3882C25CD040C154DF4F68817981F5
:100FC0008A819B81CF5BD0400E9495325B011C01DE
:100FD0002F81CD53DF4F2883C35CD0408885CC530D
:100FE000DF4F8883C45CD0402985CB53DF4F2883F3
:100FF000C55CD0408A85CA53DF4F8883C65CD04029
:10100000CD53DF4F288139814A815B81C35CD04059
:101010008F81C953DF4F8883C75CD0408885C85310
:10102000DF4F8883C85CD0408985C753DF4F8883F2
:10103000C95CD0408A85C653DF4F8883CA5CD040E4
:10104000C953DF4F688179818A819B81C75CD04019
:101050000E949532C553DE4F2881CB5CD140C553E9
:10106000DF4F2883CB5CD040C453DE4F2881CC5C5B
:10107000D140C453DF4F2883CC5CD040C353DE4FF4
:101080002881CD5CD140C353DF4F2883CD5CD04055
:10109000C253DE4F2881CE5CD140C253DF4F28833C
:1010A000CE5CD040C553DF4F288139814A815B81B6
:1010B000CB5CD040C153DF4F6883CF5CD040C0537E
:1010C000DF4F7883C05DD040CF52DF4F8883C15D52
:1010D000D040CE52DF4F9883C25DD040C153DF4F26
:1010E000688179818A819B81CF5CD0400E94953252
:1010F0007B018C01CE52DE4F8881C25DD140CD5242
:10110000DF4F8883C35DD040CF52DE4F2881C15D61
:10111000D140CC52DF4F2883C45DD0408D85CB5267
:10112000DF4F8883C55DD0402E85CA52DF4F2883AC
:10113000C65DD040CD52DF4F288139814A815B8125
:10114000C35DD040CE52DE4F8881C25DD140C952CE
:10115000DF4F8883C75DD040CF52DE4F8881C15DAD
:10116000D140C852DF4F8883C85DD0408D85C752BB
:10117000DF4F8883C95DD0408E85C652DF4F88839C
:10118000CA5DD040C952DF4F688179818A819B81D5
:10119000C75DD0400E949532C552DF4F6883CB5D5A
:1011A000D040C452DF4F7883CC5DD040C352DF4F74
:1011B0008883CD5DD040C252DF4F9883CE5DD04052
:1011C000C552DF4F288139814A815B81CB5DD04098
:1011D000C152DF4FE882CF5DD040C052DF4FF8826E
:1011E000C05ED040CF51DF4F0883C15ED040CE51AA
:1011F000DF4F1883C25ED040C152DF4F68817981D2
:101200008A819B81CF5DD0400E949532CD51DF4FC6
:101210005882C35ED040CC51DF4F4882C45ED0407C
:10122000C153DE4F2881CF5CD140CB51DF4F2883A3
:10123000C55ED040C053DE4F2881C05DD140CA5149
:10124000DF4F2883C65ED040CD51DF4F28813981E2
:101250004A815B81C35ED040C951DF4F6883C75E5E
:10126000D040C851DF4F7883C85ED040C751DF4FB0
:101270008883C95ED040C651DF4F9883CA5ED04094
:10128000C951DF4F688179818A819B81C75ED040D7
:101290000E94953220E030E040EC50E4C551DF4F31
:1012A0006883CB5ED040C451DF4F7883CC5ED040A2
:1012B000C351DF4F8883CD5ED040C251DF4F98834A
:1012C000CE5ED040C551DF4F688179818A819B8194
:1012D000CB5ED0400E940633C151DF4F6883CF5EA2
:1012E000D040C051DF4F7883C05FD040CF50DF4F38
:1012F0008883C15FD040CE50DF4F9883C25FD0401B
:10130000C151DF4F288139814A815B81CF5ED04056
:10131000CD50DF4F9882C35FD040CC50DF4F8882E2
:10132000C45FD0408981CB50DF4F8883C55FD040F8
:101330008A81CA50DF4F8883C65FD040CD50DF4FCF
:10134000688179818A819B81C35FD0400E949532F8
:10135000962E872E89839A832B892B838C898C8365
:101360002D892D838E898E830B811C812D81288769
:101370008E818F8377C92AE037ED43E25CE3C95061
:10138000DF4F9882C75FD040C850DF4F8882C85F68
:10139000D0408981C750DF4F8883C95FD0408A81A0
:1013A000C650DF4F8883CA5FD040C950DF4F688185
:1013B00079818A819B81C75FD0400E9465346B87A9
:1013C0007C878D879E872AE037ED43E25CEBC55032
:1013D000DF4FA882CB5FD040C450DF4FB882CC5FD4
:1013E000D040C350DF4F2882CD5FD040C250DF4F86
:1013F0003882CE5FD040C550DF4F688179818A81C5
:101400009B81CB5FD0400E9465346F87788B898B3E
:101410009A8B20E030E040E05FE3C150DF4F68830B
:10142000CF5FD040C050DF4F7883C050D140898912
:10143000CF5FDE4F8883C150D140CE5FDE4F9883AF
:10144000C250D140C150DF4F688179818A819B8130
:10145000CF5FD0400E946534CD5FDE4F9882C3508D
:10146000D140CC5FDE4F8882C450D1402981CB5F10
:10147000DE4F2883C550D1402A81CA5FDE4F2883C2
:10148000C650D140CD5FDE4F288139814A815B81D2
:10149000C350D140C95FDE4F6883C750D140C85F99
:1014A000DE4F7883C850D140C75FDE4F8883C95074
:1014B000D140C65FDE4F9883CA50D140C95FDE4F2E
:1014C000688179818A819B81C750D1400E94953281
:1014D0002AE037ED43E25CE3C55FDE4F6883CB5023
:1014E000D140C45FDE4F7883CC50D140C35FDE4F24
:1014F0008883CD50D140C25FDE4F9883CE50D1401B
:10150000C55FDE4F688179818A819B81CB50D14054
:101510000E9465342B013C0120E030E040E05FE3B5
:101520008B85C15FDE4F8883CF50D1408C85C05FF3
:10153000DE4F8883C051D1408D85CF5EDE4F8883DA
:10154000C151D1408E85CE5EDE4F8883C251D140DD
:10155000C15FDE4F688179818A819B81CF50D14004
:101560000E946534CD5EDE4FA882C351D140CC5E6F
:10157000DE4FB882C451D140CB5EDE4F2882C551C8
:10158000D140CA5EDE4F3882C651D140CD5EDE4FBB
:10159000288139814A815B81C351D140C95EDE4FC8
:1015A0006883C751D140C85EDE4F7883C851D140AF
:1015B000C75EDE4F8883C951D140C65EDE4F988337
:1015C000CA51D140C95EDE4F688179818A819B8191
:1015D000C751D1400E9495322AE037ED43E25CEBDF
:1015E000C55EDE4F6883CB51D140C45EDE4F788349
:1015F000CC51D140C35EDE4F8883CD51D140C25E15
:10160000DE4F9883CE51D140C55EDE4F688179812F
:101610008A819B81CB51D1400E9465346B017C0152
:1016200020E030E040E05FE3C15EDE4F6883CF51F1
:10163000D140C05EDE4FD882C052D140CF5DDE4F78
:101640008883C152D140CE5DDE4FF882C252D14074
:10165000C15EDE4F688179818A819B81CF51D14003
:101660000E946534CD5DDE4F9882C352D140CC5D7F
:10167000DE4F8882C452D1402981CB5DDE4F288362
:10168000C552D1402A81CA5DDE4F2883C652D1405F
:10169000CD5DDE4F288139814A815B81C352D140C3
:1016A000C95DDE4F6883C752D140C85DDE4F788385
:1016B000C852D140C75DDE4F8883C952D140C65D54
:1016C000DE4F9883CA52D140C95DDE4F688179816F
:1016D0008A819B81C752D1400E9495322AE037ED22
:1016E00043E25CE3C55DDE4F6883CB52D140C45D0D
:1016F000DE4F7883CC52D140C35DDE4F8883CD521C
:10170000D140C25DDE4F9883CE52D140C55DDE4FE1
:10171000688179818A819B81CB52D1400E94653456
:101720006F83788789879A8720E030E040E05FE325
:10173000C15DDE4F4882CF52D140C05DDE4F58823E
:10174000C053D140CF5CDE4F6882C153D140CE5CE4
:10175000DE4F7882C253D140C15DDE4F688179810E
:101760008A819B81CF52D1400E946534CD5CDE4F8F
:10177000A882C353D140CC5CDE4FB882C453D14061
:10178000CB5CDE4F2882C553D140CA5CDE4F388225
:10179000C653D140CD5CDE4F288139814A815B81BF
:1017A000C353D140C95CDE4F6883C753D140C85C86
:1017B000DE4F7883C853D140C75CDE4F8883C9535E
:1017C000D140C65CDE4F9883CA53D140C95CDE4F1E
:1017D000688179818A819B81C753D1400E9495326B
:1017E0002AE037ED43E25CEBC55CDE4F6883CB5308
:1017F000D140C45CDE4F7883CC53D140C35CDE4F14
:101800008883CD53D140C25CDE4F9883CE53D14004
:10181000C55CDE4F688179818A819B81CB53D14041
:101820000E9465348B01C053DE4F8883C05DD14078
:10183000C153DE4F9883CF5CD1408F81C15CDE4FB6
:101840008883CF53D1402885C05CDE4F2883C054A5
:10185000D1408985CF5BDE4F8883C154D1402A8532
:10186000CE5BDE4F2883C254D140C15CDE4F28815D
:1018700039814A815B81CF53D140CD5BDE4FA88255
:10188000C354D140CC5BDE4FB882C454D140CB5B53
:10189000DE4F2882C554D140CA5BDE4F3882C65421
:1018A000D140CD5BDE4F688179818A819B81C354B1
:1018B000D1400E9495322AE037ED43E25CEBC95BF0
:1018C000DE4F6883C754D140C85BDE4F7883C8546D
:1018D000D140C75BDE4F8883C954D140C65BDE4F21
:1018E0009883CA54D140C95BDE4F688179818A816F
:1018F0009B81C754D1400E946534C553DE4F688335
:10190000CB5CD140C453DE4F7883CC5CD140C35311
:10191000DE4F8883CD5CD140C253DE4F9883CE5CCE
:10192000D140C55BDE4F4882CB54D140C45BDE4F13
:101930005882CC54D140C35BDE4F6882CD54D14035
:10194000C25BDE4F7882CE54D140C55BDE4F28812A
:1019500039814A815B81CB54D140C15BDE4F4882E3
:10196000CF54D140C05BDE4F5882C055D140CF5AD2
:10197000DE4F6882C155D140CE5ADE4F7882C255C3
:10198000D140C15BDE4F688179818A819B81CF54D0
:10199000D1400E9495322B85CD5ADE4F2883C35506
:1019A000D1402C85CC5ADE4F2883C455D1402D859B
:1019B000CB5ADE4F2883C555D1402E85CA5ADE4FFB
:1019C0002883C655D140CD5ADE4F288139814A81BE
:1019D0005B81C355D140C95ADE4F6883C755D1409A
:1019E000C85ADE4F7883C855D140C75ADE4F888326
:1019F000C955D140C65ADE4F9883CA55D140C95AFD
:101A0000DE4F688179818A819B81C755D1400E94D0
:101A100095322B013C018F81C55ADE4F8883CB550F
:101A2000D1402885C45ADE4F2883CC55D1408985C2
:101A3000C35ADE4F8883CD55D1402A85C25ADE4F26
:101A40002883CE55D140C55ADE4F288139814A813D
:101A50005B81CB55D1408F81C15ADE4F8883CF55F2
:101A6000D1408885C05ADE4F8883C056D1408985D1
:101A7000CF59DE4F8883C156D1408A85CE59DE4F7B
:101A80008883C256D140C15ADE4F688179818A81EC
:101A90009B81CF55D1400E949532CD59DE4F68834E
:101AA000C356D140CC59DE4F7883C456D140CB5970
:101AB000DE4F8883C556D140CA59DE4F9883C6563B
:101AC000D140CD59DE4F288139814A815B81C3568F
:101AD000D140C959DE4F4882C756D140C859DE4F60
:101AE0005882C856D140C759DE4F6882C956D14086
:101AF000C659DE4F7882CA56D140C959DE4F688137
:101B000079818A819B81C756D1400E9495322B01F1
:101B10003C01C559DE4F0883CB56D140C459DE4F36
:101B20001883CC56D140C053DE4F2881C05DD140D0
:101B3000C359DE4F2883CD56D140C153DE4F888133
:101B4000CF5CD140C259DE4F8883CE56D140C559B3
:101B5000DE4F288139814A815B81CB56D140C15902
:101B6000DE4F9882CF56D140C059DE4F8882C05791
:101B7000D1408981CF58DE4F8883C157D1408A81B7
:101B8000CE58DE4F8883C257D140C159DE4F68819D
:101B900079818A819B81CF56D1400E9495322AE07B
:101BA00037ED43E25CE3CD58DE4F6883C357D14045
:101BB000CC58DE4F7883C457D140CB58DE4F888352
:101BC000C557D140CA58DE4F9883C657D140CD582B
:101BD000DE4F688179818A819B81C357D1400E9401
:101BE0006534C958DE4F6883C757D140C858DE4FA7
:101BF0007883C857D140C758DE4F8883C957D14032
:101C0000C658DE4F9883CA57D140C958DE4F288145
:101C100039814A815B81C757D140C558DE4F488220
:101C2000CB57D140C458DE4F5882CC57D140C3580F
:101C3000DE4F6882CD57D140C258DE4F7882CE57F2
:101C4000D140C558DE4F688179818A819B81CB570D
:101C5000D1400E94953220E030E040EC50E4C15881
:101C6000DE4F6883CF57D140C058DE4F7883C058CD
:101C7000D140CF57DE4F8883C158D140CE57DE4F79
:101C80009883C258D140C158DE4F688179818A81DA
:101C90009B81CF57D1400E940633CD57DE4F6883DA
:101CA000C358D140CC57DE4F7883C458D140CB576E
:101CB000DE4F8883C558D140CA57DE4F9883C65837
:101CC000D140CD57DE4F288139814A815B81C3588D
:101CD000D140C957DE4FA882C758D140C857DE4F00
:101CE000B882C858D140C757DE4F2882C958D14062
:101CF000C657DE4F3882CA58D140C957DE4F688177
:101D000079818A819B81C758D1400E9495325B01BD
:101D10001C01C557DE4FC882CB58D140C457DE4F97
:101D2000D882CC58D140C357DE4FE882CD58D1403D
:101D3000C257DE4FF882CE58D140C557DE4F2881BA
:101D400039814A815B81CB58D140C157DE4FC8826F
:101D5000CF58D140C057DE4FD882C059D140CF565E
:101D6000DE4FE882C159D140CE56DE4FF882C259CB
:101D7000D140C157DE4F688179818A819B81CF58DC
:101D8000D1400E9495322F85CD56DE4F2883C3590E
:101D9000D1402889CC56DE4F2883C459D1402989A7
:101DA000CB56DE4F2883C559D1402A89CA56DE4F0B
:101DB0002883C659D140CD56DE4F288139814A81CA
:101DC0005B81C359D140C956DE4F6883C759D140A2
:101DD000C856DE4F7883C859D140C756DE4F888336
:101DE000C959D140C656DE4F9883CA59D140C95609
:101DF000DE4F688179818A819B81C759D1400E94D9
:101E000095326B017C01C556DE4F0883CB59D1401A
:101E1000C456DE4F1883CC59D140C053DE4F888161
:101E2000C05DD140C356DE4F8883CD59D140C153E8
:101E3000DE4F2881CF5CD140C256DE4F2883CE5979
:101E4000D140C556DE4F288139814A815B81CB590B
:101E5000D140C156DE4F0883CF59D140C056DE4F26
:101E60001883C05AD140CF55DE4F8883C15AD14024
:101E7000C153DE4F8881CF5CD140CE55DE4F888381
:101E8000C25AD140C156DE4F688179818A819B81D7
:101E9000CF59D1400E949532CD55DE4F6883C35A49
:101EA000D140CC55DE4F7883C45AD140CB55DE4F5C
:101EB0008883C55AD140CA55DE4F9883C65AD1404F
:101EC000CD55DE4F288139814A815B81C35AD1408B
:101ED000C955DE4FC882C75AD140C855DE4FD88297
:101EE000C85AD140C755DE4FE882C95AD140C655BD
:101EF000DE4FF882CA5AD140C955DE4F68817981D8
:101F00008A819B81C75AD1400E949532C553DE4FCA
:101F10002881CB5CD140C555DE4F2883CB5AD140B8
:101F2000C453DE4F2881CC5CD140C455DE4F28839A
:101F3000CC5AD140C353DE4F2881CD5CD140C3552C
:101F4000DE4F2883CD5AD140C253DE4F2881CE5C6C
:101F5000D140C255DE4F2883CE5AD140C555DE4F01
:101F6000288139814A815B81CB5AD140C155DE4FEE
:101F70006883CF5AD140C055DE4F7883C05BD140D3
:101F8000CF54DE4F8883C15BD140CE54DE4F98835F
:101F9000C25BD140C155DE4F688179818A819B81C6
:101FA000CF5AD1400E94953220E030E040EC50E41E
:101FB000CD54DE4F6883C35BD140CC54DE4F788371
:101FC000C45BD140CB54DE4F8883C55BD140CA543B
:101FD000DE4F9883C65BD140CD54DE4F6881798156
:101FE0008A819B81C35BD1400E940633C954DE4F76
:101FF0006883C75BD140C854DE4F7883C85BD1404B
:10200000C754DE4F8883C95BD140C654DE4F9883E6
:10201000CA5BD140C954DE4F288139814A815B8136
:10202000C75BD140C554DE4F9882CB5BD140C454CE
:10203000DE4F8882CC5BD1408981C354DE4F8883D8
:10204000CD5BD1408A81C254DE4F8883CE5BD140C4
:10205000C554DE4F688179818A819B81CB5BD140F9
:102060000E949532962E872E89839A837DC94F923E
:102070005F926F927F928F929F92AF92BF92CF9218
:10208000DF92EF92FF920F931F93CF93DF93CDB721
:10209000DEB72E970FB6F894DEBF0FBECDBF6B0133
:1020A0008E879D8729013A01A3019201E982FA8274
:1020B0000B831C8369817A818B819C810E946534AA
:1020C0004601AE84BD84A50194016D837E838F8318
:1020D00098876D817E818F8198850E9406336987FC
:1020E0007A878B879C8769857A858B859C852E96D8
:1020F0000FB6F894DEBF0FBECDBFDF91CF911F9119
:102100000F91FF90EF90DF90CF90BF90AF909F9096
:102110008F907F906F905F904F9008954F925F9255
:102120006F927F928F929F92AF92BF92CF92DF92E7
:10213000EF92FF920F931F93CF93DF93CDB7DEB74C
:102140002A970FB6F894DEBF0FBECDBF6A87798796
:10215000182F092F20E030E0A90169837A838B834F
:102160009C8369817A818B819C810E94013318163E
:102170000CF059C020E030E040E85FE34A84598425
:10218000612E702EC301B2010E94013387FF29C066
:102190004201A12EB02EA501940160E070E080E81C
:1021A0009FE30E9406336B017C01C701B6010E94C8
:1021B0008E1090582A960FB6F894DEBF0FBECDBF92
:1021C000DF91CF911F910F91FF90EF90DF90CF9013
:1021D000BF90AF909F908F907F906F905F904F9047
:1021E00008958A858D8389858E831F8308876D81F5
:1021F0007E818F8198852A960FB6F894DEBF0FBE38
:10220000CDBFDF91CF911F910F91FF90EF90DF90A5
:10221000CF90BF90AF909F908F907F906F905F9086
:102220004F900C94530060E070E0CB01C3CF4F920D
:102230005F926F927F928F929F92AF92BF92CF9256
:10224000DF92EF92FF920F931F93CF93DF938B0157
:102250009C01C901B8010E948E10D62FC72F8C0196
:1022600060E070E080E291E40E9453002B013C01A9
:10227000A30192018D2E9C2E5801C501B4010E942C
:1022800006336B017C01C701B601DF91CF911F912D
:102290000F91FF90EF90DF90CF90BF90AF909F9005
:1022A0008F907F906F905F904F9008952F923F9204
:1022B0004F925F926F927F928F929F92AF92BF9256
:1022C000CF92DF92EF92FF920F931F93CF93DF9302
:1022D000CDB7DEB7CE59D1400FB6F894DEBF0FBEF2
:1022E000CDBF6B017C0129013A0120E030E0A9015A
:1022F000C701B6010E940133811511F40C94981D99
:1023000020E030E0A901C301B2010E940133811530
:1023100011F40C94921DC301B2010E9478334B0159
:102320001B01072E000C880B990B0E94B0336983A8
:102330007A838B839C8329813A814B815C81C301A1
:10234000B2010E94013320E030E0A90181110C9418
:10235000AF1DC301B2010E946034181614F00C9432
:102360009E1D20E030E048EC52E4C301B2010E941F
:10237000013320E030E0A901181614F40C94BB1DC1
:10238000C701B6010E94013387FF0EC0C40162E09D
:1023900070E00E94D23421E030E0019711F42FEF79
:1023A0003FEF3A8329830EC020E030E0A901C70146
:1023B000B6010E94603418160CF462C081E090E00F
:1023C0009A838983F7FAF094F7F8F094A12CB12C52
:1023D000812C912C00E81FE3A214B3040CF455C027
:1023E00029813A81B901330F880B990B0E94B033D0
:1023F00089869A860B871C8729853A854B855C855B
:102400006D877E878F87988B6D857E858F85988970
:102410000E946534C157DE4F6883CF58D140C05702
:10242000DE4F7883C059D140CF56DE4F8883C159E3
:10243000D140CE56DE4F9883C259D140C157DE4FAE
:10244000688179818A819B81CF58D140C256DE4F05
:102450000FB6F894DEBF0FBECDBFDF91CF911F91B5
:102460000F91FF90EF90DF90CF90BF90AF909F9033
:102470008F907F906F905F904F903F902F90089536
:1024800081E090E09A838983A1CFA70196018D8294
:102490009E820F8318876D817E818F8198850E942F
:1024A00065344B018C019FEFA91AB90A95CFC10180
:1024B00062E070E00E94D234019709F4B9C681E06D
:1024C00090E09AA789A7F7FAF094F7F8F09420E043
:1024D00030E0A901C301B2010E94013387FD02C0AF
:1024E0000C94C71D77FA709477F8709481E090E0AF
:1024F000CD56DE4F99838883C359D14020E030E028
:1025000040E85FE3C701B6010E94013387FD95C62D
:1025100020E030E040E85FE3C701B6010E9494325A
:102520002AE037ED43E25CE3698F7A8F8B8F9C8FD3
:10253000698D7A8D8B8D9C8D0E940633698B7A8B89
:102540008B8B9C8B69897A898B899C890E947833D3
:10255000C356DE4F6883CD59D140C256DE4F7883D3
:10256000CE59D140C356DE4F28813981CD59D14053
:102570003E8F2D8F1A8E198E312C212C80E8A82E9B
:102580009FE3B92E19821D8290E899872FE32D874A
:10259000898D9A8D2D8D3E8D821793070CF479C607
:1025A0003981CD53DF4F3883C35CD0408D81CC530C
:1025B000DF4F8883C45CD0409985CB53DF4F98832D
:1025C000C55CD0402D85CA53DF4F2883C65CD04000
:1025D000CD53DF4F288139814A815B81C35CD04074
:1025E000C701B6010E9494328B018FA79BA720E000
:1025F00030E0A901C953DF4F6883C75CD040C8539E
:10260000DF4F1883C85CD040C753DF4F8883C95C55
:10261000D040C653DF4F9883CA5CD040C953DF4FC8
:10262000688179818A819B81C75CD0400E94603437
:1026300018160CF08FC5C553DF4F3882CB5CD040E5
:10264000C453DF4F2882CC5CD040C353DF4FA882F5
:10265000CD5CD040C253DF4FB882CE5CD040C55372
:10266000DF4F288139814A815B81CB5CD040C30137
:10267000B2010E9465343981C153DF4F3883CF5C8A
:10268000D0402D81C053DF4F2883C05DD0403985B5
:10269000CF52DF4F3883C15DD0402D85CE52DF4F02
:1026A0002883C25DD040C153DF4F288139814A81E0
:1026B0005B81CF5CD040CD52DF4F6883C35DD0409B
:1026C000CC52DF4F7883C45DD040CB52DF4F88833C
:1026D000C55DD040CA52DF4F9883C65DD040CD5211
:1026E000DF4F688179818A819B81C35DD0400E94E0
:1026F0000633C952DF4F0883C75DD040C852DF4F51
:102700001883C85DD0403FA5C752DF4F3883C95DED
:10271000D0402BA5C652DF4F2883CA5DD040C95296
:10272000DF4F288139814A815B81C75DD040C55226
:10273000DF4F6883CB5DD040C452DF4F7883CC5DE0
:10274000D040C352DF4F8883CD5DD040C252DF4FAF
:102750009883CE5DD040C552DF4F688179818A81F0
:102760009B81CB5DD0400E946534698B7D8B89A3B2
:102770009DA320E030E040E05FE3C152DF4F0883DB
:10278000CF5DD040C052DF4F1883C05ED0408FA5D0
:10279000CF51DF4F8883C15ED0409BA5CE51DF4F24
:1027A0009883C25ED040C152DF4F688179818A81AF
:1027B0009B81CF5DD0400E9465342981CD51DF4F90
:1027C0002883C35ED0403D81CC51DF4F3883C45E47
:1027D000D0402985CB51DF4F2883C55ED0403D8551
:1027E000CA51DF4F3883C65ED040CD51DF4F2881BC
:1027F00039814A815B81C35ED040C951DF4F688314
:10280000C75ED040C851DF4F7883C85ED040C75103
:10281000DF4F8883C95ED040C651DF4F9883CA5EC0
:10282000D040C951DF4F688179818A819B81C75E21
:10283000D0400E9495326B017C0120E030E040E006
:102840005FE38989C551DF4F8883CB5ED0409D8986
:10285000C451DF4F9883CC5ED04089A1C351DF4F74
:102860008883CD5ED0409DA1C251DF4F9883CE5E5C
:10287000D040C551DF4F688179818A819B81CB5ED1
:10288000D0400E946534C151DF4F3882CF5ED040C6
:10289000C051DF4F2882C05FD040CF50DF4FA882A9
:1028A000C15FD040CE50DF4FB882C25FD040C1512F
:1028B000DF4F288139814A815B81CF5ED040CD5086
:1028C000DF4F6883C35FD040CC50DF4F7883C45F55
:1028D000D040CB50DF4F8883C55FD040CA50DF4F18
:1028E0009883C65FD040CD50DF4F688179818A815F
:1028F0009B81C35FD0400E949532A3019201C950D1
:10290000DF4F6883C75FD040C850DF4F7883C85F10
:10291000D040C750DF4F8883C95FD040C650DF4FDB
:102920009883CA5FD040C950DF4F688179818A811E
:102930009B81C75FD0400E946534C550DF4FC8827D
:10294000CB5FD040C450DF4FD882CC5FD040C35063
:10295000DF4FE882CD5FD040C250DF4FF882CE5FBC
:10296000D040C550DF4F288139814A815B81CB5FE0
:10297000D040C150DF4F6883CF5FD040C050DF4FA1
:102980007883C050D140CF5FDE4F8883C150D140A3
:10299000CE5FDE4F9883C250D140C150DF4F688177
:1029A00079818A819B81CF5FD0400E940633CD5FC1
:1029B000DE4F0883C350D140CC5FDE4F1883C45034
:1029C000D1402FA5CB5FDE4F2883C550D1403BA51A
:1029D000CA5FDE4F3883C650D140CD5FDE4F2881BD
:1029E00039814A815B81C350D140C95FDE4F688322
:1029F000C750D140C85FDE4F7883C850D140C75F11
:102A0000DE4F8883C950D140C65FDE4F9883CA50DD
:102A1000D140C95FDE4F688179818A819B81C7502F
:102A2000D1400E9465344B018D8F998F20E030E0BA
:102A300040E05FE3C55FDE4F6883CB50D140C45FA9
:102A4000DE4F9882CC50D140C35FDE4F8883CD509B
:102A5000D140C25FDE4F9883CE50D140C55FDE4F7C
:102A6000688179818A819B81CB50D1400E946534F5
:102A7000C15FDE4F3882CF50D140C05FDE4F288229
:102A8000C051D140CF5EDE4FA882C151D140CE5E51
:102A9000DE4FB882C251D140C15FDE4F28813981FB
:102AA0004A815B81CF50D140CD5EDE4F6883C351F8
:102AB000D140CC5EDE4F7883C451D140CB5EDE4F37
:102AC0008883C551D140CA5EDE4F9883C651D1403C
:102AD000CD5EDE4F688179818A819B81C351D1406F
:102AE0000E949532A3019201C95EDE4F6883C751EF
:102AF000D140C85EDE4F7883C851D140C75EDE4FFB
:102B00008883C951D140C65EDE4F9883CA51D140F7
:102B1000C95EDE4F688179818A819B81C751D1402E
:102B20000E946534C55EDE4FC882CB51D140C45E81
:102B3000DE4FD882CC51D140C35EDE4FE882CD510A
:102B4000D140C25EDE4FF882CE51D140C55EDE4F2D
:102B5000288139814A815B81CB51D140C15EDE4FF2
:102B60006883CF51D140C05EDE4F7883C052D140E0
:102B7000CF5DDE4F8883C152D140CE5DDE4F98835A
:102B8000C252D140C15EDE4F688179818A819B81CA
:102B9000CF51D1400E940633CD5DDE4F0883C35232
:102BA000D140CC5DDE4F1883C452D1402FA5CB5D00
:102BB000DE4F2883C552D1403BA5CA5DDE4F388326
:102BC000C652D140CD5DDE4F288139814A815B817B
:102BD000C352D140C95DDE4F6883C752D140C85D42
:102BE000DE4F7883C852D140C75DDE4F8883C9521B
:102BF000D140C65DDE4F9883CA52D140C95DDE4FD9
:102C0000688179818A819B81C752D1400E94653455
:102C10006B017C01C55DDE4F6883CB52D140C45D42
:102C2000DE4FD882CC52D140C35DDE4F8883CD5277
:102C3000D140C25DDE4FF882CE52D140C55DDE4F3D
:102C4000288139814A815B81CB52D140C15DDE4F01
:102C50003882CF52D140C05DDE4F2882C053D14070
:102C6000CF5CDE4FA882C153D140CE5CDE4FB8822C
:102C7000C253D140C15DDE4F688179818A819B81D9
:102C8000CF52D1400E949532A3019201CD5CDE4F1C
:102C90006883C353D140CC5CDE4F7883C453D140AA
:102CA000CB5CDE4F8883C553D140CA5CDE4F98832E
:102CB000C653D140CD5CDE4F688179818A819B818A
:102CC000C353D1400E9465342B013C01C95CDE4FE7
:102CD0000883C753D140C85CDE4F1883C853D14026
:102CE0008FA5C75CDE4F8883C953D1409BA5C65CC6
:102CF000DE4F9883CA53D140C95CDE4F28813981A9
:102D00004A815B81C753D1408981C55CDE4F88838E
:102D1000CB53D1409D81C45CDE4F9883CC53D140CE
:102D20008985C35CDE4F8883CD53D1409D85C25CCD
:102D3000DE4F9883CE53D140C55CDE4F68817981E8
:102D40008A819B81CB53D1400E949532C15CDE4F7A
:102D50006883CF53D140C05CDE4F7883C054D140EC
:102D6000CF5BDE4F8883C154D140CE5BDE4F98836A
:102D7000C254D140C15CDE4F288139814A815B81D8
:102D8000CF53D140CD5BDE4F4882C354D140CC5BA2
:102D9000DE4F5882C454D140CB5BDE4F6882C554AD
:102DA000D140CA5BDE4F7882C654D140CD5BDE4F46
:102DB000688179818A819B81C354D1400E94063306
:102DC000C95BDE4F0883C754D140C85BDE4F188310
:102DD000C854D1402FA5C75BDE4F2883C954D140CA
:102DE0003BA5C65BDE4F3883CA54D140C95BDE4F7A
:102DF000288139814A815B81C754D140C55BDE4F50
:102E00006883CB54D140C45BDE4F7883CC54D1402F
:102E1000C35BDE4F8883CD54D140C25BDE4F9883C5
:102E2000CE54D140C55BDE4F688179818A819B8118
:102E3000CB54D1400E9465348B018D839983C15B53
:102E4000DE4F8882CF54D140C05BDE4F9882C055A0
:102E5000D1408D8DCF5ADE4F8883C155D140998D99
:102E6000CE5ADE4F9883C255D140C15BDE4F2881D8
:102E700039814A815B81CF54D140CD5ADE4F88825F
:102E8000C355D140CC5ADE4F9882C455D140CB5A5D
:102E9000DE4F8883C555D140CA5ADE4F9883C65548
:102EA000D140CD5ADE4F688179818A819B81C3559B
:102EB000D1400E9495322989C95ADE4F2883C755CF
:102EC000D1403D89C85ADE4F3883C855D14029A129
:102ED000C75ADE4F2883C955D1403DA1C65ADE4F9F
:102EE0003883CA55D140C95ADE4F288139814A8179
:102EF0005B81C755D140C55ADE4F6883CB55D14061
:102F0000C45ADE4F7883CC55D140C35ADE4F8883F4
:102F1000CD55D140C25ADE4F9883CE55D140C55AC7
:102F2000DE4F688179818A819B81CB55D1400E9497
:102F300095324B013C01C15ADE4FC882CF55D1407A
:102F4000C05ADE4FD882C056D140CF59DE4FE882FA
:102F5000C156D140CE59DE4FF882C256D140C15A37
:102F6000DE4F288139814A815B81CF55D140CD59CF
:102F7000DE4FC882C356D140CC59DE4FD882C456EA
:102F8000D140CB59DE4FE882C556D140CA59DE4FF9
:102F9000F882C656D140CD59DE4F688179818A8149
:102FA0009B81C356D1400E949532C959DE4F688338
:102FB000C756D140C859DE4F7883C856D140C7594B
:102FC000DE4F8883C956D140C659DE4F9883CA5612
:102FD000D140C959DE4F288139814A815B81C7566A
:102FE000D140C559DE4F8882CB56D140C459DE4FFF
:102FF0009882CC56D140C359DE4F6882CD56D1401D
:10300000C259DE4F7882CE56D140C559DE4F688115
:1030100079818A819B81CB56D1400E949532C159DA
:10302000DE4F6883CF56D140C059DE4F7883C057FA
:10303000D140CF58DE4F8883C157D140CE58DE4FA4
:103040009883C257D140C159DE4F288139814A81C6
:103050005B81CF56D140CD58DE4F0883C357D14056
:10306000CC58DE4F1883C457D1408D81CB58DE4FEA
:103070008883C557D1409981CA58DE4F9883C65777
:10308000D140CD58DE4F688179818A819B81C357B9
:10309000D1400E94953220E030E040EC50E4C95825
:1030A000DE4F6883C757D140C858DE4F7883C85772
:1030B000D140C758DE4F8883C957D140C658DE4F2C
:1030C0009883CA57D140C958DE4F688179818A8177
:1030D0009B81C757D1400E940633C558DE4F688395
:1030E000CB57D140C458DE4F7883CC57D140C3581A
:1030F000DE4F8883CD57D140C258DE4F9883CE57DC
:10310000D140C558DE4F288139814A815B81CB5738
:10311000D140C158DE4F3882CF57D140C058DE4F22
:103120002882C058D140CF57DE4FA882C158D14025
:10313000CE57DE4FB882C258D140C158DE4F6881A9
:1031400079818A819B81CF57D1400E949532362E5A
:10315000272E5C01CD56DE4F28813981C359D140DD
:10316000232B29F1CD57DE4F3882C358D140CC579D
:10317000DE4F2882C458D140CB57DE4FA882C558B5
:10318000D140CA57DE4FB882C658D140CD57DE4F26
:10319000288139814A815B81C358D14060E070E069
:1031A00080E89FE30E940633362E272E5C0129A576
:1031B0003AA5B901330F880B990B0E94B033C95758
:1031C000DE4F3882C758D140C857DE4F2882C858D2
:1031D000D140C757DE4FA882C958D140C657DE4FED
:1031E000B882CA58D140C957DE4F288139814A81F7
:1031F0005B81C758D140C557DE4F6883CB58D1405B
:10320000C457DE4F7883CC58D140C357DE4F8883F4
:10321000CD58D140C257DE4F9883CE58D140C557C4
:10322000DE4F688179818A819B81CB58D140F0C87B
:103230002FEF3FEF3AA729A746C9A701960160E003
:1032400070E080E89FE30E9494322AE037ED43E289
:103250005CE36D8B7E8B8F8B988F6D897E898F89D8
:10326000988D0E94063369A37AA38BA39CA369A1BE
:103270007AA18BA19CA10E9478336D8F7E8F8F8F56
:1032800098A38D8D9E8D9195819591099E8F8D8F9F
:1032900071C93DA22EA2AFA2B8A62DA13EA14FA1F9
:1032A00058A5C301B2010E94653439813BA72D8125
:1032B0002CA739853DA72D852EA72BA53CA54DA56F
:1032C0005EA56FA778AB89AB9AAB6FA578A989A9E2
:1032D0009AA90E9406332AE037ED43E25CE36BAB28
:1032E0007CAB8DAB9EAB6BA97CA98DA99EA90E94DE
:1032F000653469A3CB56DE4F7883C559D140CA5691
:10330000DE4F8883C659D140C956DE4F9883C759CE
:10331000D1402AE037ED43EA5BE389818FAB9D81A1
:1033200098AF898589AF9D859AAF6FA978AD89AD32
:103330009AAD0E9495328B01C756DE4F8883C959DA
:10334000D140C856DE4F9883C859D14020E030E0C4
:1033500040E05FE389A18BAFCB56DE4F9881C55922
:10336000D1409CAFCA56DE4F8881C659D1408DAF3F
:10337000C956DE4F9881C759D1409EAF6BAD7CAD29
:103380008DAD9EAD0E9465343FAE21962FAE219744
:103390002296AFAE22972396BFAE239723962CADED
:1033A0003DAD4EAD5FAD239724966FAF2497259624
:1033B0007FAF259726968FAF269727969FAF2797A3
:1033C00027966CAD7DAD8EAD9FAD27970E9495324F
:1033D000A301920128966FAF289729967FAF29976E
:1033E0002A968FAF2A972B969FAF2B972B966CAD73
:1033F0007DAD8EAD9FAD2B970E9465342C960FAF9F
:103400002C972D961FAF2D97C756DE4F2881C9598F
:10341000D1402E962FAF2E97C856DE4F3881C8590F
:10342000D1402F963FAF2F972F962CAD3DAD4EAD8F
:103430005FAD2F9760966FAF609761967FAF619792
:1034400062968FAF629763969FAF639763966CADFA
:103450007DAD8EAD9FAD63970E9406332AE037EDB8
:1034600043E25CE364966FAF649765967FAF6597C0
:1034700066968FAF669767969FAF679767966CADB6
:103480007DAD8EAD9FAD67970E9465344B01898BF2
:103490009D8B20E030E040E05FE368966FAF689777
:1034A00069969FAE69976A968FAF6A976B969FAF42
:1034B0006B976B966CAD7DAD8EAD9FAD6B970E949B
:1034C00065346C963FAE6C976D962FAE6D976E9689
:1034D000AFAE6E976F96BFAE6F976F962CAD3DAD4A
:1034E0004EAD5FAD6F97A0966FAFA097A1967FAFDF
:1034F000A197A2968FAFA297A3969FAFA397A396EB
:103500006CAD7DAD8EAD9FADA3970E949532A301AA
:103510009201A4966FAFA497A5967FAFA597A696A4
:103520008FAFA697A7969FAFA797A7966CAD7DADD7
:103530008EAD9FADA7970E946534A8960FAFA89750
:10354000A9961FAFA997C756DE4F2881C959D14008
:10355000AA962FAFAA97C856DE4F3881C859D140D6
:10356000AB963FAFAB97AB962CAD3DAD4EAD5FADDF
:10357000AB97AC966FAFAC97AD967FAFAD97AE966D
:103580008FAFAE97AF969FAFAF97AF966CAD7DAD57
:103590008EAD9FADAF970E9406332AE037ED43E230
:1035A0005CE3E0966FAFE097E1967FAFE197E2963C
:1035B0008FAFE297E3969FAFE397E3966CAD7DAD57
:1035C0008EAD9FADE3970E9465348B01C356DE4FED
:1035D0008883CD59D140C456DE4F9883CC59D14011
:1035E0002AE037ED43E25CE38981E4968FAFE4970C
:1035F0009D81E5969FAFE5978985E6968FAFE69723
:103600009D85E7969FAFE797E7966CAD7DAD8EAD54
:103610009FADE7970E94953269837D8389879D8757
:10362000E8960FAFE897E9961FAFE997C356DE4FCC
:103630002881CD59D140EA962FAFEA97C456DE4F84
:103640003881CC59D140EB963FAFEB97EB962CAD40
:103650003DAD4EAD5FADEB97EC963FAEEC97ED9682
:103660002FAEED97EE96AFAEEE97EF96BFAEEF971B
:10367000EF966CAD7DAD8EAD9FADEF970E9495320C
:10368000A3019201C158DF4F6883CF57D040C05883
:10369000DF4F7883C058D040CF57DF4F8883C15861
:1036A000D040CE57DF4F9883C258D040C158DF4F2B
:1036B000688179818A819B81CF57D0400E9465348F
:1036C0002981CD57DF4F2883C358D0403D81CC5747
:1036D000DF4F3883C458D0402985CB57DF4F28832C
:1036E000C558D0403D85CA57DF4F3883C658D040B3
:1036F000CD57DF4F288139814A815B81C358D04043
:10370000C957DF4F6883C758D040C857DF4F788309
:10371000C858D040C757DF4F8883C958D040C657D4
:10372000DF4F9883CA58D040C957DF4F68817981ED
:103730008A819B81C758D0400E9406332AE037ED2A
:1037400043E25CE3C557DF4F6883CB58D040C45792
:10375000DF4F7883CC58D040C357DF4F8883CD5894
:10376000D040C257DF4F9883CE58D040C557DF4F67
:10377000688179818A819B81CB58D0400E946534D1
:10378000C856DE4F6883C859D140C756DE4F78838C
:10379000C959D140C656DE4F8883CA59D140C55653
:1037A000DE4F9883CB59D140C157DF4F8882CF5825
:1037B000D040C057DF4F9882C059D0408989CF563A
:1037C000DF4F8883C159D0409D89CE56DF4F988303
:1037D000C259D040C157DF4F288139814A815B816E
:1037E000CF58D040CD56DF4F8882C359D040CC56F9
:1037F000DF4F9882C459D040CB56DF4F8883C559DC
:10380000D040CA56DF4F9883C659D040CD56DF4FBF
:10381000688179818A819B81C359D0400E94953209
:1038200029A1C956DF4F2883C759D040CB56DE4F58
:103830003881C559D140C856DF4F3883C859D04068
:10384000CA56DE4F2881C659D140C756DF4F28835C
:10385000C959D040C956DE4F3881C759D140C656E4
:10386000DF4F3883CA59D040C956DF4F288139818C
:103870004A815B81C759D040C556DF4F6883CB5919
:10388000D040C456DF4F7883CC59D040C356DF4F69
:103890008883CD59D040C256DF4F9883CE59D0404F
:1038A000C556DF4F688179818A819B81CB59D04091
:1038B0000E949532698B7D8B4C01C156DF4F088386
:1038C000CF59D040C056DF4F1883C05AD040C3569E
:1038D000DE4F8881CD59D140CF55DF4F8883C15A03
:1038E000D040C456DE4F9881CC59D140CE55DF4FE1
:1038F0009883C25AD040C156DF4F288139814A810E
:103900005B81CF59D040CD55DF4F0883C35AD0409B
:10391000CC55DF4F1883C45AD040CB55DF4F888336
:10392000C55AD040CA55DF4F9883C65AD040CD55AE
:10393000DF4F688179818A819B81C35AD0400E9480
:103940009532C955DF4F6883C75AD040C855DF4FFD
:103950007883C85AD040C755DF4F8883C95AD040B2
:10396000C655DF4F9883CA5AD040C955DF4F2881CA
:1039700039814A815B81C75AD0408989C555DF4F5B
:103980008883CB5AD0409D89C455DF4F9883CC5A49
:10399000D040C355DF4F8882CD5AD040C255DF4F4B
:1039A0009882CE5AD040C555DF4F688179818A818F
:1039B0009B81CB5AD0400E949532C155DF4F68831E
:1039C000CF5AD040C055DF4F7883C05BD040CF5432
:1039D000DF4F8883C15BD040CE54DF4F9883C25BFA
:1039E000D040C155DF4F288139814A815B81CF5A50
:1039F000D040C856DE4F8881C859D140CD54DF4FE2
:103A00008883C35BD040C756DE4F9881C959D140E7
:103A1000CC54DF4F9883C45BD040C656DE4F8881BC
:103A2000CA59D140CB54DF4F8883C55BD040C556BF
:103A3000DE4F9881CB59D140CA54DF4F9883C65B83
:103A4000D040CD54DF4F688179818A819B81C35BEF
:103A5000D0400E94953220E030E040EC50E4C95460
:103A6000DF4F6883C75BD040C854DF4F7883C85BA3
:103A7000D040C754DF4F8883C95BD040C654DF4F66
:103A80009883CA5BD040C954DF4F688179818A81AD
:103A90009B81C75BD0400E940633C554DF4F6883CB
:103AA000CB5BD040C454DF4F7883CC5BD040C35451
:103AB000DF4F8883CD5BD040C254DF4F9883CE5B0D
:103AC000D040C554DF4F288139814A815B81CB5B6F
:103AD000D040C154DF4F3882CF5BD040C054DF4F5D
:103AE0002882C05CD040CF53DF4FA882C15CD04059
:103AF000CE53DF4FB882C25CD040C154DF4F6881E3
:103B000079818A819B81CF5BD0400E949532362E8D
:103B1000272E5C01298D3A8D2F5F3F4F3A8F298FD9
:103B20000C94C81260E070E080E89FE30C940A12E5
:103B300060E070E080E090E00C940A1220E030E059
:103B4000A901C701B6010E94013387FF02C00C948E
:103B5000571281E090E09AA789A70C946712C701D9
:103B6000B6010E94013387FDE3CF21E030E03AA7A0
:103B700029A70C946712C701B6010E94013387FF81
:103B800002C00C94571281E090E09AA789A7CD5605
:103B9000DE4F19821882C359D1400C947E122F92A5
:103BA0003F924F925F926F927F928F929F92AF92CD
:103BB000BF92CF92DF92EF92FF920F931F93CF931A
:103BC000DF93CDB7DEB7CC57D1090FB6F894DEBF7F
:103BD0000FBECDBF6B017C0120E030E0A901C70121
:103BE000B6010E94603487FD64C02AE037ED43E2ED
:103BF0005CE3C701B6010E9406332B013C01C301FF
:103C0000B2010E947833EB967FAF6EAFEB9780E006
:103C100090E0A0E8BFE3E9968CAF9DAFAEAFBFAF39
:103C2000E997212C312C00E010E0ED961FAEED97C6
:103C3000EC961FAEEC97F12CE12CD12CC12CEB961D
:103C40008EAD9FADEB97281639060CF44CC0E2966A
:103C50000FAFE297E3961FAFE397ED969FADED9719
:103C6000E4969FAFE497EC96AFADEC97E596AFAFD7
:103C7000E597E5966CAD7DAD8EAD9FADE597C458EB
:103C8000DF4F0FB6F894DEBF0FBECDBFDF91CF91EF
:103C90001F910F91FF90EF90DF90CF90BF90AF906A
:103CA0009F908F907F906F905F904F903F902F905C
:103CB0000895C701B60190582AE037ED43E25CE36E
:103CC0000E9406334B015C01C501B4010E947833A8
:103CD000EA966FAFEA97EB967FAFEB9780E090E0C4
:103CE000A0E8BFEB98CF2AE037ED43EA5BE3F98227
:103CF000EA82DB82CC8269817A818B819C810E94FD
:103D000095322B013C012AE037ED43E25CE3FD8272
:103D1000EE82DF82C8866D817E818F8198850E94C8
:103D200095324B015C0149865A866B867C862985D3
:103D30003A854B855C854D865E866F86788A6D8573
:103D40007E858F8598890E94653420E030E040E8C8
:103D50005FE3698B7A8B8B8B9C8B69897A898B89E2
:103D60009C890E9495326D8B7E8B8F8B988F2D89CD
:103D70003E894F89588D6AE077ED83E29CE30E948B
:103D80000633698F7A8F8B8F9C8F298D3A8D4B8D5F
:103D90005C8D6D8F7E8F8F8F98A36D8D7E8D8F8DB7
:103DA00098A10E9495322B013C01F9A2EAA2DBA264
:103DB000CCA229A13AA14BA15CA1FDA2EEA2DFA257
:103DC000C8A66DA17EA18FA198A50E94653420E0B0
:103DD00030E040E85FE369A77AA78BA79CA769A5B5
:103DE0007AA58BA59CA50E9495326DA77EA78FA76B
:103DF00098AB2DA53EA54FA558A96AE077ED83E2C3
:103E00009CE30E94063349AA5AAA6BAA7CAA29A954
:103E10003AA94BA95CA96DAB7EAB8FAB98AF6DA9EE
:103E20007EA98FA998AD0E94953249AE5AAE6BAE6D
:103E30007CAE29AD3AAD4BAD5CAD6DAF7EAF8FAF13
:103E400021969FAF219721966CAD7DAD8EAD9FAD34
:103E500021970E9495322B013C0122968FAE22972A
:103E600023969FAE23972496AFAE24972596BFAE98
:103E7000259725962CAD3DAD4EAD5FAD2597269689
:103E80008FAE269727969FAE27972896AFAE289796
:103E90002996BFAE299729966CAD7DAD8EAD9FADAD
:103EA00029970E94653420E030E040E85FE32A96DD
:103EB0006FAF2A972B967FAF2B972C968FAF2C97AF
:103EC0002D969FAF2D972D966CAD7DAD8EAD9FAD90
:103ED0002D970E9495322E966FAF2E972F967FAF1B
:103EE0002F9760968FAF609761969FAF61976196AD
:103EF0002CAD3DAD4EAD5FAD61976AE077ED83E2ED
:103F00009CE30E94063362966FAF629763967FAF21
:103F1000639764968FAF649765969FAF6597659634
:103F20002CAD3DAD4EAD5FAD659766964FAE6697D5
:103F300067965FAE679768966FAE689769967FAE33
:103F4000699769966CAD7DAD8EAD9FAD69970E9406
:103F50009532E9962CAD3DAD4EAD5FADE9976A96D1
:103F60006FAF6A976B967FAF6B976C968FAF6C97BE
:103F70006D969FAF6D976D966CAD7DAD8EAD9FAD1F
:103F80006D970E94653420E030E040EC50E46E967E
:103F90006FAF6E976F967FAF6F97A0968FAFA0971A
:103FA000A1969FAFA197A1966CAD7DAD8EAD9FAD53
:103FB000A1970E940633A2966FAFA297A3967FAFF8
:103FC000A397A4968FAFA497A5969FAFA597A59604
:103FD0002CAD3DAD4EAD5FADA597A6960FAFA697A4
:103FE000A7961FAFA797ED969FADED97A8969FAFA9
:103FF000A897EC96AFADEC97A996AFAFA997A99605
:104000006CAD7DAD8EAD9FADA9970E9495328B01B1
:10401000ED968FAFED97EC969FAFEC972AE037EDDA
:1040200043E25CE3E9966CAD7DAD8EAD9FADE99763
:104030000E946534AA966FAFAA97AB967FAFAB97F5
:10404000AC968FAFAC97AD969FAFAD97AD962CADBC
:104050003DAD4EAD5FADAD97AE96FFAEAE97AF96B0
:10406000EFAEAF97E096DFAEE097E196CFAEE19787
:10407000E1966CAD7DAD8EAD9FADE1970E9495321E
:10408000F62EE72ED82EC92EBFEF2B1A3B0AD7CD1E
:104090002F923F924F925F926F927F928F929F9258
:1040A000AF92BF92CF92DF92EF92FF920F931F9346
:1040B000CF93DF93CDB7DEB7C059D1090FB6F894CF
:1040C000DEBF0FBECDBF6B017C0120E030E040E8D9
:1040D0005FEBC701B6010E94013387FD09C320E0F1
:1040E00030E040E85FE3C701B6010E946034181673
:1040F0000CF4FEC220E030E0A901C701B6010E9425
:10410000603487FD7CC02AE037ED43E25CE3C70101
:10411000B6010E9406332B013C01C301B2010E948B
:104120007833C757DF4F79836883C958D04080E020
:1041300090E0A0E8BFE3CB57DF4F88839983AA8341
:10414000BB83C558D040212C312C00E010E0C05773
:10415000DF4F1882C059D040C157DF4F1882CF5867
:10416000D040F12CE12CD12CC12CC757DF4F8881D6
:104170009981C958D040281639060CF45EC0CF5733
:10418000DF4F0883C158D040CE57DF4F1883C25845
:10419000D040C057DF4F9881C059D040CD57DF4F36
:1041A0009883C358D040C157DF4FA881CF58D04023
:1041B000CC57DF4FA883C458D040CF57DF4F68811A
:1041C00079818A819B81C158D040C057DF4F0FB69B
:1041D000F894DEBF0FBECDBFDF91CF911F910F913D
:1041E000FF90EF90DF90CF90BF90AF909F908F9017
:1041F0007F906F905F904F903F902F900895C701F0
:10420000B60190582AE037ED43E25CE30E940633A2
:104210004B015C01C501B4010E947833C757DF4FE1
:104220006883C958D040C657DF4F7883CA58D040FA
:1042300080E090E0A0E8BFEB7ECFF982EA82DB82EB
:10424000CC8229813A814B815C81FD82EE82DF82C2
:10425000C8866D817E818F8198850E9465346987CB
:104260007A878B879C8729853A854B855C8560E0BA
:1042700070E080E89FE30E9494326D877E878F878D
:10428000988B6D857E858F8598890E940D022AE026
:1042900037ED43E25CE3698B7A8B8B8B9C8B69896E
:1042A0007A898B899C890E946534C557DF4F688362
:1042B000CB58D040C457DF4F7883CC58D040C35739
:1042C000DF4F8883CD58D040C257DF4F9883CE58F8
:1042D000D0402AE037ED43E25CE3CB57DF4F688103
:1042E00079818A819B81C558D0400E9465342B0119
:1042F0003C0120E030E040E05FE36D8B5E8A8F8B15
:10430000788E6D897E898F89988D0E946534F98EAB
:10431000EA8EDB8ECC8E298D3A8D4B8D5C8D6D8F28
:104320007E8F8F8F98A36D8D7E8D8F8D98A10E942B
:10433000953269A37AA38BA39CA329A13AA14BA18F
:104340005CA16DA37EA38FA398A76DA17EA18FA171
:1043500098A50E94653469A77AA78BA79CA729A571
:104360003AA54BA55CA560E070E080E89FE30E9461
:1043700094326DA77EA78FA798AB6DA57EA58FA55C
:1043800098A90E940D022AE037ED43E25CE369AB95
:104390007AAB8BAB9CAB69A97AA98BA99CA90E942B
:1043A00065344B015C014DAA5EAA6FAA78AE2DA9B7
:1043B0003EA94FA958ADF9AEEAAEDBAECCAE69ADC1
:1043C0007AAD8BAD9CAD0E949532F62EE72ED82E9D
:1043D000C92E6DAF7EAF8FAF21969FAF21972196EB
:1043E0002CAD3DAD4EAD5FAD219722966FAF2297BC
:1043F00023967FAF239724968FAF249725969FAF60
:10440000259725966CAD7DAD8EAD9FAD25970E940D
:10441000653426966FAF269727967FAF2797289605
:104420008FAF289729969FAF299729962CAD3DAD40
:104430004EAD5FAD299760E070E080E89FE30E9499
:1044400094322A966FAF2A972B967FAF2B972C9694
:104450008FAF2C972D969FAF2D972D966CAD7DAD80
:104460008EAD9FAD2D970E940D022B013C012E9623
:104470008FAE2E972F969FAE2F976096AFAE609718
:104480006196BFAE619761962CAD3DAD4EAD5FAD0F
:10449000619762968FAE629763969FAE63976496BC
:1044A000AFAE64976596BFAE659765966CAD7DAD12
:1044B0008EAD9FAD65970E9495324B015C0166966B
:1044C0006FAF669767969FAE679768968FAF68974E
:1044D0006996BFAE699769962CAD3DAD4EAD5FADA7
:1044E0006997C557DF4F9881CB58D0406A969FAFE8
:1044F0006A97C457DF4FA881CC58D0406B96AFAFB6
:104500006B97C357DF4FB881CD58D0406C96BFAF83
:104510006C97C257DF4F8881CE58D0406D968FAFD1
:104520006D976D966CAD7DAD8EAD9FAD6D970E9414
:1045300095326E968FAE6E976F969FAE6F97A096E0
:10454000AFAEA097A196BFAEA197A1962CAD3DAD01
:104550004EAD5FADA197A2966FAFA297A3967FAF26
:10456000A397A4968FAFA497A5969FAFA597A5965E
:104570006CAD7DAD8EAD9FADA5970E9495324B0180
:104580005C012AE037ED43E25CE3A6964FAEA697C6
:10459000A7965FAEA797A8966FAEA897A9967FAE8D
:1045A000A997A9966CAD7DAD8EAD9FADA9970E94E0
:1045B0006534AA966FAFAA97AB967FAFAB97AC96D0
:1045C0008FAFAC97AD969FAFAD97AD962CAD3DAD8F
:1045D0004EAD5FADAD97AE968FAEAE97AF969FAE38
:1045E000AF97E096AFAEE097E196BFAEE197E19668
:1045F0006CAD7DAD8EAD9FADE1970E949532CB57EE
:10460000DF4F288139814A815B81C558D040E296CD
:104610006FAFE297E3967FAFE397E4968FAFE497AF
:10462000E5969FAFE597E5966CAD7DAD8EAD9FAD00
:10463000E5970E94653420E030E040EC50E4E696D7
:104640006FAFE697E7967FAFE797E8968FAFE8976B
:10465000E9969FAFE997E9966CAD7DAD8EAD9FADC4
:10466000E9970E940633EA966FAFEA97EB967FAF21
:10467000EB97EC968FAFEC97ED969FAFED97ED969D
:104680002CAD3DAD4EAD5FADED97EE960FAFEE9715
:10469000EF961FAFEF97C057DF4F9881C059D040BA
:1046A000C158DF4F9883CF57D040C157DF4FA88103
:1046B000CF58D040C058DF4FA883C058D040C3580F
:1046C000DF4F688179818A819B81CD57D0400E94DC
:1046D00095328B01C057DF4F8883C059D040C157F6
:1046E000DF4F9883CF58D040BFEF2B1A3B0A3DCD08
:1046F00000E010E0C057DF4F1882C059D040C157CA
:10470000DF4F1882CF58D0403ACD2FEF3FEFFC015A
:10471000318320830895FC0181E090E02081318184
:104720002F3F3F4F11F080E090E008950F931F93CB
:10473000FC01808191818F3391057CF401969183F6
:104740008083880F991F880F991FE80FF91F8A012E
:104750009B0102831383248335831F910F91089556
:10476000FC01808191818F3F980781F09C0121504D
:10477000310931832083880F991F880F991FE80F13
:10478000F91F6281738184819581089560E070E0F2
:1047900080E89FEB0895FC01808191818F3F98070D
:1047A00059F0880F991F880F991FE80FF91F628130
:1047B000738184819581089560E070E080E89FEBCB
:1047C0000895803364F48A328CF096ED980F8BE272
:1047D00001C086959A95EAF7817090E0089521E0EE
:1047E0008E3509F020E090E0822F089580E0F5CF2B
:1047F0008B32A1F08D3291F08A3299F08F3289F0AC
:104800008E3591F021E030E0813211F020E030E08F
:10481000C901880F991F880F991F089581E090E0C2
:10482000089582E090E0089583E090E008952F924B
:104830003F924F925F926F927F928F929F92AF9230
:10484000BF92CF92DF92EF92FF920F931F93CF937D
:10485000DF93CDB7DEB7C655D1400FB6F894DEBFB3
:104860000FBECDBFC95FDE4F8883C750D140C85F40
:10487000DE4F9883C850D1400FEF1FEFC12CD12CD1
:10488000C95FDE4FE881F981C750D140EC0DFD1DB5
:10489000F080F1102CC060E070E080E89FEB0F3FEB
:1048A000100759F0F801EE0FFF1FEE0FFF1FEC0F7E
:1048B000FD1F6381748185819681CA5ADE4F0FB6D0
:1048C000F894DEBF0FBECDBFDF91CF911F910F9146
:1048D000FF90EF90DF90CF90BF90AF909F908F9020
:1048E0007F906F905F904F903F902F90089520E2BF
:1048F000F21204C03FEFC31AD30AC2CF8F2D0F2C80
:10490000000C990BC0970A9708F4DAC0C60101960B
:104910006C019DE2F91285C12181822F022E000CCB
:10492000990BC0970A9718F02E3209F07AC1A1E0CE
:10493000B0E0CF5ADE4FB983A883C155D140212CB6
:10494000312C21016AC020E030E040E251E4C20194
:10495000B1010E9465342B01682EF92EB401990C27
:10496000880B990B0E94B033C75FDE4F4882C95055
:10497000D140C65FDE4F5882CA50D140C55FDE4F7E
:104980006882CB50D140C45FDE4FF882CC50D1401A
:10499000C75FDE4F288139814A815B81C950D14090
:1049A000C35FDE4F6883CD50D140C25FDE4F788356
:1049B000CE50D140C15FDE4F8883CF50D140C05F21
:1049C000DE4F9883C051D140C35FDE4F688179814B
:1049D0008A819B81CD50D1400E949532CF5EDE4FBF
:1049E0006883C151D140CE5EDE4F7883C251D14041
:1049F000CD5EDE4F8883C351D140CC5EDE4F9883BD
:104A0000C451D140CF5EDE4F288039804A805B8020
:104A1000C151D140BFEFCB1ADB0AC95FDE4FE8813D
:104A2000F981C750D140EC0DFD1D8081882E082EE4
:104A3000000C9908E0E38E1A9108FAE08F169104B1
:104A400008F481CF8E32E1F42FEFC21AD20A9DEC26
:104A5000F92E2CEC922E3CEC832E4DE3642EC95F94
:104A6000DE4FE881F981C750D140EC0DFD1D60811A
:104A7000062E000C770B605371096A30710558F1EE
:104A8000CF5ADE4F88819981C155D140892B21F0C1
:104A900057FA509457F850940F3311050CF0F0CE9C
:104AA0000F5F1F4FF801EE0FFF1FEE0FFF1FDE011C
:104AB0001196EA0FFB1F2282338244825582E0CE98
:104AC000CF5ADE4F1882C155D140CE5ADE4F1882E0
:104AD000C255D14034CF072E000C880B990B0E9491
:104AE000B033CB5EDE4FF882C551D140CA5EDE4F97
:104AF0009882C651D140C95EDE4F8882C751D140ED
:104B0000C85EDE4F6882C851D140CB5EDE4F28813F
:104B100039814A815B81C551D140C75EDE4F6883D0
:104B2000C951D140C65EDE4F7883CA51D140C55EBF
:104B3000DE4F8883CB51D140C45EDE4F9883CC5189
:104B4000D140C75EDE4F688179818A819B81C951DE
:104B5000D1400E946534C35EDE4F6883CD51D140A1
:104B6000C25EDE4F7883CE51D140C15EDE4F888376
:104B7000CF51D140C05EDE4F9883C052D140C35E5A
:104B8000DE4F288139814A815B81CD51D140C201FC
:104B9000B1010E949532CF5DDE4F6883C152D14092
:104BA000CE5DDE4F7883C252D140CD5DDE4F88832B
:104BB000C352D140CC5DDE4F9883C452D140CF5D0B
:104BC000DE4F288039804A805B80C152D1402DEC75
:104BD0003CEC4CEC5DE3CB5DDE4FF882C552D1403E
:104BE000CA5DDE4F9882C652D140C95DDE4F8882D1
:104BF000C752D140C85DDE4F6882C852D140CB5DFC
:104C0000DE4F688179818A819B81C552D1400E94A3
:104C10006534F62E972E882E692E3FEFC31AD30ADD
:104C20001ECF8F2D0E94E123892B09F48BC088248D
:104C30008A94982C20E030E040E85FEBCA01B9018B
:104C40000F3F100741F1F80131974F01F801EE0FC6
:104C5000FF1FEE0FFF1F9E012F5F3F4FE20FF31F5D
:104C6000228133814481558160E070E080E89FEBD0
:104C70000115110581F0F401EE0FFF1FEE0FFF1F6C
:104C8000CE010196E80FF91F6281738184819581BD
:104C9000D80112974D01BDE2FB1609F44AC0EEE2BD
:104CA000FE16BCF5FAE2FF1609F446C0ABE2FA16AE
:104CB000C9F1FFE38F16910454F52FEF821A920A7F
:104CC000F401EE0FFF1FEE0FFF1FEC0FFD1FC75D7E
:104CD000DE4FE882C952D140C65DDE4FB882CA526B
:104CE000D140C55DDE4FA882CB52D140C45DDE4FBE
:104CF0007882CC52D140C75DDE4F88819981AA81EC
:104D0000BB81C952D14083839483A583B683840138
:104D1000B7CDBFE2FB1699F0EEE5FE12CACF0E94B6
:104D2000561102C00E949532E62EB72EA82E792E7B
:104D3000C0CF0E949432F8CF0E946534F5CF0E9414
:104D40000633F2CF95E7F9160CF09ACDA3E6FA16E2
:104D500064F5B4E2FB1609F484C2E5E2FE168CF5B4
:104D6000F1E2FF1609F4D7C223E2F21289CD0F3F18
:104D7000100709F4CBC24801E1E08E1A9108FFE365
:104D80008F16910424F6F801EE0FFF1FEE0FFF1FA0
:104D9000EC0FFD1F638174818581968184010F5F13
:104DA0001F4F48010E94CF1D4BC2EDE9EF0DE231CC
:104DB00008F066CD0E2E000CFF0BE95DF44C0C9450
:104DC000E63430E4F31609F41EC287E4F81258CD35
:104DD000CD5FDE4F188219821A821B82C350D140E8
:104DE00044E050E060E070E0CE018D5F9E4F0E9495
:104DF000493A0F3311050CF043CD0F5F1F4FF801F7
:104E0000EE0FFF1FEE0FFF1FEC0FFD1FCD5FDE4FFC
:104E100088819981AA81BB81C350D1403BC00F3F9B
:104E20001007E9F1F801EE0FFF1FEE0FFF1FEC0F67
:104E3000FD1F6381748185819681015011090E9453
:104E40008E100F3311050CF01BCD0F5F1F4FF801B3
:104E5000EE0FFF1FEE0FFF1FEC0FFD1FC35DDE4FB8
:104E60006883CD52D140C25DDE4F7883CE52D140AF
:104E7000C15DDE4F8883CF52D140C05DDE4F988345
:104E8000C053D140C35DDE4F88819981AA81BB8127
:104E9000CD52D14083839483A583B683F1CC60E067
:104EA00070E080E89FEBCBCF0F3F1007C9F1F8010E
:104EB000EE0FFF1FEE0FFF1FEC0FFD1F63817481CC
:104EC00085819681015011090E9417110F33110538
:104ED0000CF0D6CC0F5F1F4FF801EE0FFF1FEE0F47
:104EE000FF1FEC0FFD1FCF5CDE4F6883C153D14025
:104EF000CE5CDE4F7883C253D140CD5CDE4F8883D9
:104F0000C353D140CC5CDE4F9883C453D140CF5CB7
:104F1000DE4F88819981AA81BB81C153D140BACF2C
:104F200060E070E080E89FEBCFCF0F3F1007C9F142
:104F3000F801EE0FFF1FEE0FFF1FEC0FFD1F638147
:104F4000748185819681015011090E94FF020F33FF
:104F500011050CF095CC0F5F1F4FF801EE0FFF1FEE
:104F6000EE0FFF1FEC0FFD1FCB5CDE4F6883C553B8
:104F7000D140CA5CDE4F7883C653D140C95CDE4F56
:104F80008883C753D140C85CDE4F9883C853D14053
:104F9000CB5CDE4F88819981AA81BB81C553D1400A
:104FA00079CF60E070E080E89FEBCFCF20E030E089
:104FB00040E85FEB0F3F100769F0F801EE0FFF1FAD
:104FC000EE0FFF1FEC0FFD1F2381348145815681B9
:104FD000015011096BED7FE089EC9FE30E94943250
:104FE000C75CDE4F6883C953D140C65CDE4F78830F
:104FF000CA53D140C55CDE4F8883CB53D140C45CDB
:10500000DE4F9883CC53D140C75CDE4F68817981F5
:105010008A819B81C953D1400E94FF020F33110541
:105020000CF02ECC0F5F1F4FF801EE0FFF1FEE0F9D
:10503000FF1FEC0FFD1FC35CDE4F6883CD53D140D3
:10504000C25CDE4F7883CE53D140C15CDE4F888393
:10505000CF53D140C05CDE4F9883C054D140C35C75
:10506000DE4F88819981AA81BB81CD53D14012CF77
:10507000212C312C30E8432E3FEB532E0F3F1007ED
:1050800069F0F801EE0FFF1FEE0FFF1FEC0FFD1F81
:10509000238034804580568001501109C201B1013E
:1050A0000E94FF02CD5ADE4F6883C355D140CA5AD1
:1050B000DE4F7883C655D140682EF92EA2019101AA
:1050C0006BED7FE089EC9FE30E949432CF5BDE4F73
:1050D0006883C154D140CE5BDE4F7883C254D14047
:1050E000CD5BDE4F8883C354D140CC5BDE4F9883C9
:1050F000C454D140CF5BDE4F688179818A819B8126
:10510000C154D1400E94FF020F3311050CF0B8CBFF
:105110000F5F1F4F4801880C991C880C991CDE01F9
:1051200011968A0E9B1ECB5BDE4F6883C554D1401F
:10513000CA5BDE4F7883C654D140C95BDE4F88839B
:10514000C754D140C85BDE4F9883C854D140CB5B75
:10515000DE4F288139814A815B81C554D140CD5AC7
:10516000DE4FB881C355D140C75BDE4FB883C95409
:10517000D140CA5ADE4FE881C655D140C65BDE4FEA
:10518000E883CA54D140C55BDE4F6882CB54D1401E
:10519000C45BDE4FF882CC54D140C75BDE4F6881E0
:1051A00079818A819B81C954D1400E940633D40100
:1051B00012966D937D938D939C93159761CB0F33CE
:1051C00011050CF05DCB0F5F1F4FF801EE0FFF1FB5
:1051D000EE0FFF1FEC0FFD1F8BED9FE0A9E4B0E485
:1051E00059CE0F3311050CF04BCB0F5F1F4FF80159
:1051F000EE0FFF1FEE0FFF1FEC0FFD1F84E598EF72
:10520000ADE2B0E447CE0F3F100731F14801E1E0D5
:105210008E1A9108FFE38F1691040CF078CDF801F7
:10522000EE0FFF1FEE0FFF1FEC0FFD1F6381748158
:105230008581968184010F5F1F4F48010E9448209D
:10524000F401EE0FFF1FEE0FFF1FEC0FFD1F638336
:105250007483858396835BCD60E070E080E89FEB8C
:10526000EACF0F3F100709F44CC0480181E0881ACB
:1052700091089FE3891691040CF049CDF801EE0FD7
:10528000FF1FEE0FFF1FEC0FFD1F638174818581EF
:10529000968184010F5F1F4F48010E944820000F34
:1052A000111F000F111FFE0131960E0F1F1FC35B50
:1052B000DE4F6883CD54D140C25BDE4F7883CE543D
:1052C000D140C15BDE4F8883CF54D140C05BDE4FFD
:1052D0009883C055D140C35BDE4F288139814A8114
:1052E0005B81CD54D1406BED7FE089EC9FE30E9460
:1052F0009432D80112966D937D938D939C9315975C
:1053000006CD60E070E080E89FEBC4CF60E070E025
:1053100080E89FEB44CD0F3F100769F1480181E021
:10532000881A91089FE3891691040CF0F0CCF801DB
:10533000EE0FFF1FEE0FFF1FEC0FFD1F6381748147
:105340008581968184010F5F1F4F48010E94783349
:10535000CC5ADE4F6883C455D140CB5ADE4F788398
:10536000C555D140CC5ADE4F88819981C455D14072
:105370000E94AF0165CF60E070E080E89FEBE3CF73
:105380002F923F924F925F926F927F928F929F9255
:10539000AF92BF92CF92DF92EF92FF920F931F9343
:1053A000CF93DF93CDB7DEB7CE58D1400FB6F89488
:1053B000DEBF0FBECDBF2C011B01FC010190002000
:1053C000E9F731979F01281B390BC957DE4F398305
:1053D0002883C758D1400FEF1FEF612C712CE12CAF
:1053E000F12C6101CE0CDF1CC957DE4FE881F98139
:1053F000C758D1406E167F06BCF17801EE0CFF1C39
:10540000EE0CFF1CEC0EFD1E9701295F3F4F79014A
:105410004E0133E0830E911C560120E2722EE814F7
:10542000F90409F0CDC2F8013196EE0FFF1FEC0D23
:10543000FD1D1082C257DE4F0FB6F894DEBF0FBEBF
:10544000CDBFDF91CF911F910F91FF90EF90DF9033
:10545000CF90BF90AF909F908F907F906F905F9014
:105460004F903F902F9008955201A60CB71CD50184
:10547000BC91CD57DE4FB883C358D140BD3209F03F
:1054800052C0F30131964F01672849F0F50182912E
:10549000883229F00E94E123892B09F4A0C234014B
:1054A000C957DE4F28813981C758D14082169306EB
:1054B0000CF095C2D50111962C91822F022E000C72
:1054C000990BC0970A9718F02E3209F088C28DE226
:1054D000F6018083FFEFEF1AFF0AF101EE0DFF1DC9
:1054E000C70101967C01C957DE4FA881B981C75811
:1054F000D1406A167B0679F0D201A60DB71D8C91BA
:10550000282F082E000C330B205331092A30310587
:1055100028F08E3219F080E2808363CF2FEF621A79
:10552000720A8083DACFCD57DE4F8881C358D140CD
:105530008357823088F0CD57DE4FB881C358D140B1
:10554000B33651F08B2F8B56823030F0B03421F0CF
:10555000885B823008F067C0C3010196C957DE4FEF
:10556000E881F981C758D1408E179F070CF092C08F
:10557000D50111968C91883209F08CC0B3016E5F11
:105580007F4F3B0181E090E0C957DE4FE881F98110
:10559000C758D140E615F70579F0F201E60DF71D81
:1055A0002081283229F40196BFEF6B1A7B0AECCFD9
:1055B0002932D1F70197C1F75301A61AB70A640D32
:1055C000751DA501CE018D5B9E4F0E942535FE0104
:1055D000ED5BFE4FEA0DFB1D1082BE016D5F7E4F3D
:1055E000CE018D5B9E4F0E94C029FE01ED5FFE4FF4
:1055F000D6012191C7010196211112C0CD57DE4F6E
:10560000F881C358D140FC9322E0E20EF11C820DD8
:10561000931D20E2DC012C93BFEF6B1A7B0AE1CED5
:105620002D937C01E6CFCD57DE4FE881C358D140A2
:10563000E03779F4D601EC93F7013196E20DF31DD2
:1056400022E0E20EF11C30E230838FEF681A780A14
:10565000C8CECD57DE4F9881C358D140953679F4E6
:10566000D6019C93F7013196E20DF31DB2E0EB0EEB
:10567000F11C80E28083EFEF6E1A7E0AB2CECD5726
:10568000DE4FF881C358D140F73421F487E4D601C6
:105690008C93E8CFCD57DE4FF881C358D1408F2F80
:1056A0000F2E000C990BC0970A9798F0FE32B9F5AF
:1056B0006114710441F0F5018291082E000C990BE0
:1056C000C0970A9730F02FEFE21AF20A80E3D60172
:1056D0008C93F101EE0DFF1D97012F5F3F4F790174
:1056E000C957DE4F88819981C758D140681679061D
:1056F00009F411CFD201A60DB71D8C91282F082EC9
:10570000000C330B205331092A30310518F08E324A
:1057100009F001CFBFEF6B1A7B0A8083DACF9FEFCE
:10572000691A790ACD57DE4FA881C358D140A832F3
:10573000B1F40F3311050CF054CE0F5F1F4FF80179
:10574000EE0FFF1FEE0FFF1FEC0FFD1F80E090E03C
:10575000A0E2B2E483839483A583B68342CECD577F
:10576000DE4FB881C358D140B93209F04FC0B0E222
:105770009B2E0F3F100709F446C05801F1E0AF1A05
:10578000B108F501EE0FFF1FEE0FFF1F9E012F5F07
:105790003F4FE20FF31F86819781A085B185CD57DA
:1057A000DE4F88839983AA83BB83C358D14020E00E
:1057B00030E040E252E4BC01CD010E94013381118E
:1057C0000BC0902F812F99838A83CE0101960E946E
:1057D000B02309811A8105CECD57DE4F68817981CA
:1057E0008A819B81C358D1400E947833F60160833F
:1057F000F2E0EF0EF11CD60111969C92B2E0CB0EB6
:10580000D11C8501B6CF9FEF8FEFDDCFCD57DE4F97
:105810009881C358D140E0E2AE2E913209F48AC09B
:10582000CD57DE4F8881C358D1400E94E12350E21A
:10583000952E892B09F4D5CD0F3F100709F4BDC073
:10584000F801EE0FFF1FEE0FFF1F9E012F5F3F4F6E
:10585000E20FF31F82819381A481B581C757DE4F88
:1058600088839983AA83BB83C958D140BC01CD01E9
:105870000E947833862E862F0E94F823C357DE4F6E
:105880008883CD58D140C257DE4F9883CE58D1403F
:10589000CD57DE4F8881C358D1400E94F823C357AB
:1058A000DE4FA881B981CD58D140A817B907A4F01F
:1058B0005801B1E0AB1AB10820E030E040E252E418
:1058C000C757DE4F688179818A819B81C958D14051
:1058D0000E940133811164C00F3311050CF081CD9A
:1058E0000F5F1F4F6801CC0CDD1CCC0CDD1CFE01D2
:1058F0003196CE0EDF1ECD57DE4FF881C358D14012
:105900006F2FFF0F770B880B990B0E94B033D601D6
:1059100012966D937D938D939C93159762CDD601CE
:10592000BC92B2E0EB0EF11CF601A182F2E0CF0EC8
:10593000D11C89010F3F100781F1F801EE0FFF1F05
:10594000EE0FFF1FCE010196E80FF91F62817381F0
:10595000848195810E947833B62E862F0E94F82389
:105960009801215031090497D1F20F3311050CF041
:1059700038CD0F5F1F4FF801EE0FFF1FEE0FFF1F17
:10598000DE011196EA0FFB1F80E090E0A4E0B2E494
:1059900082839383A483B58324CD0FEF1FEFE9CFD8
:1059A000F6018082F2E0EF0EF11CD60111969C9276
:1059B000B2E0CB0ED11C85013FCF0FEF1FEF90CF90
:1059C000D7019E918E917E916E917D010E947833D8
:1059D000F50160837182F2E0AF0EB11C20CD34017D
:1059E0001FCFAF92BF92CF92DF92EF92FF920F93B1
:1059F0001F93CF93DF93CDB7DEB7C054D1090FB655
:105A0000F894DEBF0FBECDBF182F092F9E012F5F68
:105A10003F4F5901B9010E94C0290F931F9382E3A0
:105A200091E09F938F930E945935BF92AF928DE37F
:105A300091E09F938F930E945935C5010E941724CE
:105A40000FB6F894DEBF0FBECDBF6B017C01C7015E
:105A5000B601C05CDF4F0FB6F894DEBF0FBECDBFFE
:105A6000DF91CF911F910F91FF90EF90DF90CF903A
:105A7000BF90AF900895FC0180E8DB011D928A95EC
:105A8000E9F7309711F01182108208950F931F9358
:105A9000CF93DF93DC018B01FA0180E090E0119657
:105AA0009C938E932191211105C0DF91CF911F917D
:105AB0000F910895800F911FEC0128838D919C9187
:105AC00011970196ECCF9DE8980F923070F08336D5
:105AD00061F08C3651F0803441F0835291E0823095
