:100000000C9434000C9451000C9451000C94510049
:100010000C9451000C9451000C9451000C9451001C
:100020000C9451000C9451000C9451000C9451000C
:100030000C9451000C9451000C9451000C945100FC
:100040000C9451000C9451000C9451000C945100EC
:100050000C9451000C9451000C9451000C945100DC
:100060000C9451000C94510011241FBECFEFD8E026
:10007000DEBFCDBF11E0A0E0B1E0EAE2F8E702C0E8
:1000800005900D92A237B107D9F721E0A2E7B1E0C0
:1000900001C01D92A837B207E1F70E94AE2F0C9461
:1000A000723B0C9400002F923F924F925F926F929E
:1000B0007F928F929F92AF92BF92CF92DF92EF92F8
:1000C000FF920F931F93CF93DF93CDB7DEB7C85442
:1000D000D1090FB6F894DEBF0FBECDBF20E030E0EF
:1000E00040E85FE32B013C01C301B2010E942533CC
:1000F0002AE037ED43E25CE34B015C01C501B4014A
:100100000E9497336B017C01C701B6010E9409343C
:1001100026966FAF269727967FAF2797212C312CF5
:10012000C12CD12CE12CF12C28961FAE28972996B2
:100130001FAE299710E80FE327968EAD9FAD279746
:100140002816390664F12296CFAE22972396DFAEA9
:1001500023972496EFAE24972596FFAE25972596F4
:100160006CAD7DAD8EAD9FAD2597C85BDF4F0FB6F3
:10017000F894DEBF0FBECDBFDF91CF911F910F91DD
:10018000FF90EF90DF90CF90BF90AF909F908F90B7
:100190007F906F905F904F903F902F90089528969A
:1001A0008FAD2897898329969FAD29979A831B83C2
:1001B0000C8329813A814B815C816AE077ED83E28F
:1001C0009CE30E9497332B013C012AE037ED43EA80
:1001D0005BE328968FAD28978D8329969FAD29974D
:1001E0009E831F8308876D817E818F8198850E9401
:1001F000263369877A878B879C8729853A854B8543
:100200005C856AE077ED83E29CE30E9497334B01C3
:100210005C012AE037ED43E25CE328968FAD289736
:100220008D8729969FAD29979E871F87088B6D859F
:100230007E858F8598890E94263328966FAF2897F0
:1002400029967FAF2997182F092F898A9A8AAB8A16
:10025000BC8A29893A894B895C898D8A9E8AAF8AB2
:10026000B88E6D897E898F89988D0E9426334B01C7
:100270005C01698F9A8E8B8FBC8E298D3A8D4B8D48
:100280005C8D4D8E5E8E6F8E78A26D8D7E8D8F8D86
:1002900098A10E94263389A29AA2ABA2BCA229A14E
:1002A0003AA14BA15CA16DA37EA38FA398A76DA1DA
:1002B0007EA18FA198A50E9426334B015C01289650
:1002C0008FAD289789A729969FAD29979AA71BA735
:1002D0000CA729A53AA54BA55CA56AE077ED83E2BA
:1002E0009CE30E9497336DA77EA78FA798AB2DA59F
:1002F0003EA54FA558A989AA9AAAABAABCAA69A9E2
:100300007AA98BA99CA90E94263320E030E040EC1A
:1003100050E46DAB7EAB8FAB98AF6DA97EA98FA972
:1003200098AD0E94973369AF7AAF8BAF9CAF29AD80
:100330003AAD4BAD5CADCDAEDEAEEFAE2196FFAECD
:10034000219721966CAD7DAD8EAD9FAD21970E941A
:1003500026336B017C018FEF281A380AEDCE2F92DD
:100360003F924F925F926F927F928F929F92AF9245
:10037000BF92CF92DF92EF92FF920F931F93CF9392
:10038000DF9300D000D0CDB7DEB78C0122E030E0A3
:100390003C832B83212C312C30E839838FE38A83F3
:1003A0002B813C8102171307E4F46101E980FA8094
:1003B000C701B6010F900F900F900F90DF91CF9172
:1003C0001F910F91FF90EF90DF90CF90BF90AF9073
:1003D0009F908F907F906F905F904F903F902F9065
:1003E00008952B813C81B901330F880B990B0E9432
:1003F00041344B015C01A5019401210169807A809F
:10040000C301B2010E94F6341B0189839A838B8158
:100410009C8101969C838B83C3CF4F925F926F9296
:100420007F928F929F92AF92BF92CF92DF92EF9284
:10043000FF920F931F93CF93DF93CDB7DEB72C9727
:100440000FB6F894DEBF0FBECDBF8B019C01C90172
:10045000B8018B019C0135952795179507955FEDA0
:10046000C52E59E5D52E57E3E52E5FE5F52EC01ACA
:10047000D10AE20AF30A20E030E040E05FE30E94A4
:10048000F634A701960169837A838B839C83698103
:100490007A818B819C810E94F634A70196012B0101
:1004A0003C01C301B2010E94F6344B015C01A5017D
:1004B000940160E070E080EC9FE30E942533A70187
:1004C00096016D837E838F8398876D817E818F8176
:1004D00098850E94F63469877A878B879C8769851F
:1004E0007A858B859C852C960FB6F894DEBF0FBE5F
:1004F000CDBFDF91CF911F910F91FF90EF90DF90D3
:10050000CF90BF90AF909F908F907F906F905F90B3
:100510004F900895EF92FF920F931F93B701C80178
:100520001F910F91FF90EF900895CA01B901905863
:1005300008954F925F926F927F928F929F92AF92A7
:10054000BF92CF92DF92EF92FF920F931F93CF93C0
:10055000DF93CDB7DEB72A970FB6F894DEBF0FBE94
:10056000CDBF8B018A8799872BED3FE049EC50E4A2
:100570004B01AA84B984C501B4010E94F13487FFFC
:100580002DC020E030E0A9010D831E838A858F8372
:10059000898588876D817E818F8198850E949233BD
:1005A00087FD28C06801EA84F984C701B6012A964C
:1005B0000FB6F894DEBF0FBECDBFDF91CF911F9174
:1005C0000F91FF90EF90DF90CF90BF90AF909F90F2
:1005D0008F907F906F905F904F9008952BED3FE04C
:1005E00049EC50E428016A847984C301B2010E9475
:1005F0002533B7CF2BED3FE049EC50E409831A8354
:100600008A858B8389858C8369817A818B819C81A2
:100610000E9426338B018A879987B3CF2F923F920E
:100620004F925F926F927F928F929F92AF92BF9202
:10063000CF92DF92EF92FF920F931F93CF93DF93AE
:10064000CDB7DEB7C05BD1400FB6F894DEBF0FBEAA
:10065000CDBF8B019C01C901B8010E9499026B8B2F
:100660007C8B8D8B9E8B712C612C20E829838FE3F2
:100670008A83C12CD12C760100E010E018861F82FD
:100680003B892C899D898E89CD55DE4F3883C35A8D
:10069000D140CC55DE4F2883C45AD140CB55DE4FD4
:1006A0009883C55AD140CA55DE4F8883C65AD14077
:1006B000CD55DE4F288139814A815B81C35AD140B3
:1006C00098858F81C955DE4F0883C75AD140C855D8
:1006D000DE4F1883C85AD140C755DE4F9883C95A98
:1006E000D140C655DE4F8883CA5AD140C955DE4F26
:1006F000688179818A819B81C75AD1400E94923357
:1007000087FD1CC0C701B601C055DE4F0FB6F89477
:10071000DEBF0FBECDBFDF91CF911F910F91FF9034
:10072000EF90DF90CF90BF90AF909F908F907F9091
:100730006F905F904F903F902F9008952AE037ED93
:1007400043E25CE398858F810F8B188F998F8A8F96
:100750006F89788D898D9A8D0E9426336B837C8377
:100760008D839E8346015701B7FAB094B7F8B094D1
:100770003B892C899D898E893B8F2C8F9D8F8E8FF5
:100780002B8D3C8D4D8D5E8D762F6C819D818E8164
:100790007F8F68A399A38AA36F8D78A189A19AA15D
:1007A0000E94F13418160CF0DEC50BA31CA328859B
:1007B0002DA38F818EA32BA13CA14DA15EA17B898E
:1007C0006C899D898E897FA368A799A78AA76FA145
:1007D00078A589A59AA50E9425338B01C055DE4FC7
:1007E0008883C05BD140C155DE4F9883CF5AD1403A
:1007F0006BA71CA78DA79EA72BA53CA54DA55EA505
:100800007FA668AA898189AB8A818AAB6FA578A9FE
:1008100089A99AA90E94F6346B877C878D879E8769
:10082000A50194010BAB1CABC055DE4F8881C05BAA
:10083000D1408DABC155DE4F8881CF5AD1408EABB0
:100840006BA97CA98DA99EA90E94F6346F87788B2D
:10085000898B9A8B20E030E040E05FE36FAB78AFAC
:10086000898989AF9AAF6FA978AD89AD9AAD0E9499
:10087000F6347BAE6CAE29812DAF2A812EAF2BAD25
:100880003CAD4DAD5EAD6FAF21967FAF2197229607
:100890008FAF229723969FAF239723966CAD7DADA4
:1008A0008EAD9FAD23970E94263324960FAF2497D9
:1008B00025961FAF2597C055DE4F2881C05BD140DC
:1008C00026962FAF2697C155DE4F2881CF5AD140AB
:1008D00027962FAF279727962CAD3DAD4EAD5FAD38
:1008E000279728966FAF289729967FAF29972A9642
:1008F0008FAF2A972B969FAF2B972B966CAD7DAD24
:100900008EAD9FAD2B970E94F6341B012C0120E089
:1009100030E040E05FE38B852C968FAF2C978C8581
:100920002D968FAF2D978D852E968FAF2E978E8516
:100930002F968FAF2F972F966CAD7DAD8EAD9FAD5F
:100940002F970E94F634A701960160966FAF6097CB
:1009500061967FAF619762968FAF629763969FAF04
:10096000639763966CAD7DAD8EAD9FAD63970E942E
:100970002633905864960FAF649765961FAF6597BE
:10098000C055DE4F2881C05BD14066962FAF669779
:10099000C155DE4F2881CF5AD14067962FAF679758
:1009A00067962CAD3DAD4EAD5FAD67970E94F634B6
:1009B0006B837C838D839E8320E030E040E05FE3A7
:1009C00068966FAF689769967FAF69978D816A96D1
:1009D0008FAF6A976B969FAF6B976B966CAD7DAD43
:1009E0008EAD9FAD6B970E94F6346C967FAE6C9780
:1009F0006D966FAE6D9729816E962FAF6E972A8197
:100A00006F962FAF6F976F962CAD3DAD4EAD5FAD2E
:100A10006F97A0966FAFA097A1967FAFA197A29670
:100A20008FAFA297A3969FAFA397A3966CAD7DAD12
:100A30008EAD9FADA3970E942633A4960FAFA497C7
:100A4000A5961FAFA597C055DE4F2881C05BD1404A
:100A5000A6962FAFA697C155DE4F2881CF5AD14019
:100A6000A7962FAFA797A7962CAD3DAD4EAD5FAD26
:100A7000A797A8966FAFA897A9967FAFA997AA96B0
:100A80008FAFAA97AB969FAFAB97AB966CAD7DAD92
:100A90008EAD9FADAB970E94F6346F8378874C0183
:100AA00020E030E040E05FE3AC962FAEAC97AD962F
:100AB0003FAEAD97AE964FAEAE97AF965FAEAF97E7
:100AC000AF966CAD7DAD8EAD9FADAF970E94F63405
:100AD000A7019601E0966FAFE097E1967FAFE197AF
:100AE000E2968FAFE297E3969FAFE397E3966CAD04
:100AF0007DAD8EAD9FADE3970E9426339058E4966E
:100B00000FAFE497E5961FAFE597C055DE4F2881FC
:100B1000C05BD140E6962FAFE697C155DE4F2881E6
:100B2000CF5AD140E7962FAFE797E7962CAD3DAD72
:100B30004EAD5FADE7970E94F6345B0189879A87D7
:100B40008F81E8968FAFE8972885E9962FAFE997D0
:100B5000EA968FAEEA97EB969FAEEB97EB962CADAD
:100B60003DAD4EAD5FADEB97C701B6010E94263398
:100B70009058EC960FAFEC97ED961FAFED97C055E0
:100B8000DE4F2881C05BD140EE962FAFEE97C15566
:100B9000DE4F2881CF5AD140EF962FAFEF97EF96D7
:100BA0002CAD3DAD4EAD5FADEF970E94F634C5550F
:100BB000DE4F6883CB5AD140C455DE4F7883CC5A80
:100BC000D140C355DE4F8883CD5AD140C255DE4F48
:100BD0009883CE5AD140C158DF4F2882CF57D0409A
:100BE000C058DF4F3882C058D040CF57DF4F4882BF
:100BF000C158D040CE57DF4F5882C258D040C1585C
:100C0000DF4F288139814A815B81CF57D040CD5752
:100C1000DF4F2882C358D040CC57DF4F3882C458AA
:100C2000D040CB57DF4F4882C558D040CA57DF4F1E
:100C30005882C658D040CD57DF4F688179818A816C
:100C40009B81C358D0400E9426332B85C957DF4F64
:100C50002883C758D0402C85C857DF4F2883C858F1
:100C6000D0402D85C757DF4F2883C958D0402E85E7
:100C7000C657DF4F2883CA58D040C957DF4F288155
:100C800039814A815B81C758D040C557DF4F68839F
:100C9000CB58D040C457DF4F7883CC58D040C3578F
:100CA000DF4F8883CD58D040C257DF4F9883CE584E
:100CB000D040C557DF4F688179818A819B81CB58AD
:100CC000D0400E9426331B012C018F81C157DF4F7A
:100CD0008883CF58D0402885C057DF4F2883C0591C
:100CE000D040CF56DF4F8882C159D040CE56DF4F1B
:100CF0009882C259D040C157DF4F288139814A813B
:100D00005B81CF58D040CD56DF4F8883C359D04048
:100D10008885CC56DF4F8883C459D040CB56DF4FEF
:100D20008882C559D040CA56DF4F9882C659D040F4
:100D3000CD56DF4F688179818A819B81C359D0402C
:100D40000E942633C956DF4F6883C759D040C85622
:100D5000DF4F7883C859D040C756DF4F8883C959C1
:100D6000D040C656DF4F9883CA59D040C956DF4F8E
:100D7000288139814A815B81C759D040C556DF4FF0
:100D80002882CB59D040C456DF4F3882CC59D0404E
:100D9000C356DF4F4882CD59D040C256DF4F5882EC
:100DA000CE59D040C556DF4F688179818A819B81B9
:100DB000CB59D0400E9426332B014C01C156DF4F46
:100DC000A882CF59D040C056DF4FB882C05AD04019
:100DD0002985CF55DF4F2883C15AD0408A85CE550B
:100DE000DF4F8883C25AD040C156DF4F28813981F6
:100DF0004A815B81CF59D040CD55DF4F7882C35AAD
:100E0000D040CC55DF4F6882C45AD0408981CB5541
:100E1000DF4F8883C55AD0408A81CA55DF4F888307
:100E2000C65AD040CD55DF4F688179818A819B8138
:100E3000C35AD0400E942633C955DF4F0883C75A92
:100E4000D040C855DF4F1883C85AD040C055DE4F38
:100E50002881C05BD140C755DF4F2883C95AD04095
:100E6000C155DE4F2881CF5AD140C655DF4F288368
:100E7000CA5AD040C955DF4F288139814A815B81E8
:100E8000C75AD040C555DF4F6883CB5AD040C455B0
:100E9000DF4F7883CC5AD040C355DF4F8883CD5A7B
:100EA000D040C255DF4F9883CE5AD040C555DF4F52
:100EB000688179818A819B81CB5AD0400E94F63427
:100EC000C155DF4F6883CF5AD040C055DF4F78837C
:100ED000C05BD040CF54DF4F8883C15BD040CE543D
:100EE000DF4F9883C25BD040C155DF4F28813981E5
:100EF0004A815B81CF5AD040CD54DF4F4882C35BDB
:100F0000D040CC54DF4F5882C45BD040CB54DF4F2D
:100F10008882C55BD040CA54DF4F9882C65BD04000
:100F2000CD54DF4F688179818A819B81C35BD0403A
:100F30000E94263320E030E040EC50E4C954DF4FFB
:100F40006883C75BD040C854DF4F7883C85BD0400C
:100F5000C754DF4F8883C95BD040C654DF4F9883A6
:100F6000CA5BD040C954DF4F688179818A819B81F7
:100F7000C75BD0400E949733C554DF4F6883CB5B7B
:100F8000D040C454DF4F7883CC5BD040C354DF4F94
:100F90008883CD5BD040C254DF4F9883CE5BD04076
:100FA000C554DF4F288139814A815B81CB5BD040BA
:100FB000C701B6010E942633C154DF4F6883CF5B5F
:100FC000D040C054DF4F7883C05CD040CF53DF4F58
:100FD0008883C15CD040CE53DF4F9883C25CD04041
:100FE000C154DF4FC880D980EA80FB80CF5BD040FE
:100FF0008B81CD53DF4F8883C35CD0402C81CC5391
:10100000DF4F2883C45CD0408D81CB53DF4F888372
:10101000C55CD0402E81CA53DF4F2883C65CD040C8
:10102000CD53DF4F288139814A815B81C35CD04039
:101030008B81C953DF4F8883C75CD0408C81C853F4
:10104000DF4F8883C85CD0408D81C753DF4F8883D2
:10105000C95CD0408E81C653DF4F8883CA5CD040C4
:10106000C953DF4F688179818A819B81C75CD040F9
:101070000E9426332F85C553DF4F2883CB5CD04099
:101080002889C453DF4F2883CC5CD0402989C353BF
:10109000DF4F2883CD5CD0402A89C253DF4F28839D
:1010A000CE5CD040C553DF4F288139814A815B81B6
:1010B000CB5CD040C153DF4F6883CF5CD040C0537E
:1010C000DF4F7883C05DD040CF52DF4F8883C15D52
:1010D000D040CE52DF4F9883C25DD040C153DF4F26
:1010E000688179818A819B81CF5CD0400E942633C0
:1010F0008B018C839B83CD52DF4FA882C35DD04090
:10110000CC52DF4FB882C45DD0408985CB52DF4FCF
:101110008883C55DD0402A85CA52DF4F2883C65DCB
:10112000D040CD52DF4F288139814A815B81C35D38
:10113000D040C952DF4FA882C75DD040C852DF4FB0
:10114000B882C85DD040C752DF4F8883C95DD040A8
:101150008A85C652DF4F8883CA5DD040C952DF4FAF
:10116000688179818A819B81C75DD0400E94263346
:10117000C552DF4F6883CB5DD040C452DF4F7883C8
:10118000CC5DD040C352DF4F8883CD5DD040C2528A
:10119000DF4F9883CE5DD040C552DF4F2881398123
:1011A0004A815B81CB5DD040C152DF4F0883CF5D68
:1011B000D040C052DF4F1883C05ED0408C81CF51E9
:1011C000DF4F8883C15ED0408B81CE51DF4F888353
:1011D000C25ED040C152DF4F688179818A819B8194
:1011E000CF5DD0400E942633C555DE4F2881CB5AB3
:1011F000D140CD51DF4F2883C35ED040C455DE4F70
:101200002881CC5AD140CC51DF4F2883C45ED040D6
:10121000C355DE4F2881CD5AD140CB51DF4F2883B3
:10122000C55ED040C255DE4F2881CE5AD140CA514A
:10123000DF4F2883C65ED040CD51DF4F28813981F2
:101240004A815B81C35ED040C951DF4F6883C75E6E
:10125000D040C851DF4F7883C85ED040C751DF4FC0
:101260008883C95ED040C651DF4F9883CA5ED040A4
:10127000C951DF4F688179818A819B81C75ED040E7
:101280000E94263320E030E040EC50E4C551DF4FAF
:101290006883CB5ED040C451DF4F7883CC5ED040B2
:1012A000C351DF4F8883CD5ED040C251DF4F98835A
:1012B000CE5ED040C551DF4F688179818A819B81A4
:1012C000CB5ED0400E949733C151DF4F6883CF5E21
:1012D000D040C051DF4F7883C05FD040CF50DF4F48
:1012E0008883C15FD040CE50DF4F9883C25FD0402B
:1012F000C151DF4F288139814A815B81CF5ED04067
:10130000CD50DF4F7882C35FD040CC50DF4F688232
:10131000C45FD0408981CB50DF4F8883C55FD04008
:101320008A81CA50DF4F8883C65FD040CD50DF4FDF
:10133000688179818A819B81C35FD0400E94263376
:10134000762E672E89839A832B892B838C898C83B5
:101350002D892D838E898E830B811C812D81288779
:101360008E818F838DC92AE037ED43E25CE3C9505B
:10137000DF4F7882C75FD040C850DF4F6882C85FB8
:10138000D0408981C750DF4F8883C95FD0408A81B0
:10139000C650DF4F8883CA5FD040C950DF4F688195
:1013A00079818A819B81C75FD0400E94F6346B8728
:1013B0007C878D879E872AE037ED43E25CE3C50199
:1013C000B4010E94F6346F87788B898B9A8B20E06A
:1013D00030E040E05FE3C550DF4F6883CB5FD04033
:1013E000C450DF4F7883CC5FD0408989C350DF4F32
:1013F0008883CD5FD040C250DF4F9883CE5FD0400E
:10140000C550DF4F688179818A819B81CB5FD04055
:101410000E94F634C150DF4F7882CF5FD040C05079
:10142000DF4F6882C050D1402981CF5FDE4F2883D3
:10143000C150D1402A81CE5FDE4F2883C250D140B7
:10144000C150DF4F288139814A815B81CF5FD04015
:10145000CD5FDE4F6883C350D140CC5FDE4F7883D1
:10146000C450D140CB5FDE4F8883C550D140CA5FA6
:10147000DE4F9883C650D140CD5FDE4F68817981C1
:101480008A819B81C350D1400E9426332AE037EDE8
:1014900043E25CE3C95FDE4F6883C750D140C85F59
:1014A000DE4F7883C850D140C75FDE4F8883C95074
:1014B000D140C65FDE4F9883CA50D140C95FDE4F2E
:1014C000688179818A819B81C750D1400E94F6341E
:1014D0001B012C0120E030E040E05FE38B85C55F1D
:1014E000DE4F8883CB50D1408C85C45FDE4F88832C
:1014F000CC50D1408D85C35FDE4F8883CD50D14025
:101500008E85C25FDE4F8883CE50D140C55FDE4FEF
:10151000688179818A819B81CB50D1400E94F634C9
:10152000A7019601C15FDE4F6883CF50D140C05FF5
:10153000DE4F7883C051D140CF5EDE4F8883C151EA
:10154000D140CE5EDE4F9883C251D140C15FDE4FA5
:10155000688179818A819B81CF50D1400E94263356
:1015600090582AE037ED43E25CE30E94F6345B01D9
:101570008F83988720E030E040E05FE3CD5EDE4F70
:101580006883C351D140CC5EDE4FB882C451D14094
:10159000CB5EDE4F8883C551D140CA5EDE4F988353
:1015A000C651D140CD5EDE4F688179818A819B81B1
:1015B000C351D1400E94F634C95EDE4F7882C751D4
:1015C000D140C85EDE4F6882C851D1402981C75ED4
:1015D000DE4F2883C951D1402A81C65EDE4F288361
:1015E000CA51D140C95EDE4F288139814A815B8171
:1015F000C751D140C55EDE4F6883CB51D140C45E38
:10160000DE4F7883CC51D140C35EDE4F8883CD510D
:10161000D140C25EDE4F9883CE51D140C55EDE4FD1
:10162000688179818A819B81CB51D1400E94263388
:101630002AE037ED43E25CE3C15EDE4F6883CF51C1
:10164000D140C05EDE4F7883C052D140CF5DDE4FC7
:101650008883C152D140CE5DDE4F9883C252D140C3
:10166000C15EDE4F688179818A819B81CF51D140F3
:101670000E94F63469877A874C0120E030E040E030
:101680005FE3CD5DDE4F2882C352D140CC5DDE4F9B
:101690003882C452D140CB5DDE4F4882C552D14022
:1016A000CA5DDE4F5882C652D140CD5DDE4F6881A3
:1016B00079818A819B81C352D1400E94F634A7016F
:1016C0009601C95DDE4F6883C752D140C85DDE4FC9
:1016D0007883C852D140C75DDE4F8883C952D1405C
:1016E000C65DDE4F9883CA52D140C95DDE4F688126
:1016F00079818A819B81C752D1400E9426339058BC
:101700002AE037ED43E25CE30E94F6348B01C055DA
:10171000DE4F8883C05BD140C155DE4F9883CF5ADE
:10172000D1408985C55DDE4F8883CB52D1402A8563
:10173000C45DDE4F2883CC52D140C35DDE4F88822A
:10174000CD52D140C25DDE4F9882CE52D140C55DB0
:10175000DE4F288139814A815B81CB52D140C7015C
:10176000B6010E94263390582AE037ED43E25CE34D
:101770000E94F634C555DE4F6883CB5AD140C4551C
:10178000DE4F7883CC5AD140C355DE4F8883CD5A83
:10179000D140C255DE4F9883CE5AD140C15DDE4F55
:1017A0002882CF52D140C05DDE4F3882C053D14035
:1017B000CF5CDE4F4882C153D140CE5CDE4F5882B1
:1017C000C253D140C15DDE4F288139814A815B819E
:1017D000CF52D140CD5CDE4F2882C353D140CC5C88
:1017E000DE4F3882C453D140CB5CDE4F4882C553B4
:1017F000D140CA5CDE4F5882C653D140CD5CDE4F2B
:10180000688179818A819B81C353D1400E942633AC
:101810002B85C95CDE4F2883C753D1402C85C85C1B
:10182000DE4F2883C853D1402D85C75CDE4F288307
:10183000C953D1402E85C65CDE4F2883CA53D140A0
:10184000C95CDE4F288139814A815B81C753D14011
:10185000C55CDE4F6883CB53D140C45CDE4F7883D8
:10186000CC53D140C35CDE4F8883CD53D140C25CA2
:10187000DE4F9883CE53D140C55CDE4F68817981BD
:101880008A819B81CB53D1400E9426331B012C01BE
:101890008985C15CDE4F8883CF53D1402A85C05CE7
:1018A000DE4F2883C054D140CF5BDE4F8882C154C5
:1018B000D140CE5BDE4F9882C254D140C15CDE4F36
:1018C000288139814A815B81CF53D140CD5BDE4F86
:1018D0008883C354D1408A85CC5BDE4F8883C4544F
:1018E000D140CB5BDE4F8882C554D140CA5BDE4F0E
:1018F0009882C654D140CD5BDE4F688179818A8160
:101900009B81C354D1400E942633C95BDE4F68835C
:10191000C754D140C85BDE4F7883C854D140C75B01
:10192000DE4F8883C954D140C65BDE4F9883CA54CA
:10193000D140C95BDE4F288139814A815B81C75420
:10194000D140C55BDE4F2882CB54D140C45BDE4F13
:101950003882CC54D140C35BDE4F4882CD54D14055
:10196000C25BDE4F5882CE54D140C55BDE4F6881EA
:1019700079818A819B81CB54D1400E9426332B01EF
:101980004C01C15BDE4F0883CF54D140C05BDE4FBA
:101990001883C055D140C055DE4F2881C05BD1406F
:1019A000CF5ADE4F2883C155D140C155DE4F8881C3
:1019B000CF5AD140CE5ADE4F8883C255D140C15B49
:1019C000DE4F288139814A815B81CF54D140CD5A85
:1019D000DE4F7882C355D140CC5ADE4F6882C45561
:1019E000D1408981CB5ADE4F8883C555D1408A8149
:1019F000CA5ADE4F8883C655D140CD5ADE4F688122
:101A000079818A819B81C355D1400E9426332AE087
:101A100037ED43E25CE3C95ADE4F6883C755D140D6
:101A2000C85ADE4F7883C855D140C75ADE4F8883E5
:101A3000C955D140C65ADE4F9883CA55D140C95ABC
:101A4000DE4F688179818A819B81C755D1400E9490
:101A5000F634C55ADE4F6883CB55D140C45ADE4FA9
:101A60007883CC55D140C35ADE4F8883CD55D140C1
:101A7000C25ADE4F9883CE55D140C55ADE4F2881D9
:101A800039814A815B81CB55D140C15ADE4F4882B2
:101A9000CF55D140C05ADE4F5882C056D140CF59A1
:101AA000DE4F8882C156D140CE59DE4F9882C25651
:101AB000D140C15ADE4F688179818A819B81CF559F
:101AC000D1400E94263320E030E040EC50E4CD5974
:101AD000DE4F6883C356D140CC59DE4F7883C4565D
:101AE000D140CB59DE4F8883C556D140CA59DE4F0D
:101AF0009883C656D140CD59DE4F688179818A815D
:101B00009B81C356D1400E949733C959DE4F6883E9
:101B1000C756D140C859DE4F7883C856D140C759FF
:101B2000DE4F8883C956D140C659DE4F9883CA56C6
:101B3000D140C959DE4F288139814A815B81C7561E
:101B4000D140C701B6010E942633C559DE4F6883D4
:101B5000CB56D140C459DE4F7883CC56D140C359BF
:101B6000DE4F8883CD56D140C259DE4F9883CE5682
:101B7000D140C559DE4FC880D980EA80FB80CB5662
:101B8000D140C159DE4FA882CF56D140C059DE4F57
:101B9000B882C057D1402F81CF58DE4F2883C1571C
:101BA000D1408885CE58DE4F8883C257D140C15975
:101BB000DE4F288139814A815B81CF56D140CD5893
:101BC000DE4FA882C357D140CC58DE4FB882C457ED
:101BD000D1408F81CB58DE4F8883C557D14088854F
:101BE000CA58DE4F8883C657D140CD58DE4F688132
:101BF00079818A819B81C357D1400E9426332F85EA
:101C0000C958DE4F2883C757D1402889C858DE4FAE
:101C10002883C857D1402989C758DE4F2883C95720
:101C2000D1402A89C658DE4F2883CA57D140C958A7
:101C3000DE4F288139814A815B81C757D140C55821
:101C4000DE4F6883CB57D140C458DE4F7883CC57E2
:101C5000D140C358DE4F8883CD57D140C258DE4FA4
:101C60009883CE57D140C558DE4F688179818A81EB
:101C70009B81CB57D1400E9426334B015C01C15858
:101C8000DE4F0883CF57D140C058DE4F1883C0586D
:101C9000D140C055DE4F8881C05BD140CF57DE4F69
:101CA0008883C158D140C155DE4F2881CF5AD140D9
:101CB000CE57DE4F2883C258D140C158DE4F28810D
:101CC00039814A815B81CF57D140CD57DE4F0883A0
:101CD000C358D140CC57DE4F1883C458D140CB579E
:101CE000DE4F8883C558D140C155DE4F8881CF5A19
:101CF000D140CA57DE4F8883C658D140CD57DE4FFA
:101D0000688179818A819B81C358D1400E942633A2
:101D1000C957DE4F6883C758D140C857DE4F788314
:101D2000C858D140C757DE4F8883C958D140C657DD
:101D3000DE4F9883CA58D140C957DE4F2881398178
:101D40004A815B81C758D140C557DE4F8882CB5846
:101D5000D140C457DE4F9882CC58D140C357DE4F94
:101D6000A882CD58D140C257DE4FB882CE58D1405C
:101D7000C557DE4F688179818A819B81CB58D140DC
:101D80000E942633C555DE4F2881CB5AD140C1571A
:101D9000DE4F2883CF58D140C455DE4F2881CC5A1E
:101DA000D140C057DE4F2883C059D140C355DE4FC4
:101DB0002881CD5AD140CF56DE4F2883C159D1401A
:101DC000C255DE4F2881CE5AD140CE56DE4F2883F1
:101DD000C259D140C157DE4F288139814A815B8188
:101DE000CF58D140CD56DE4F6883C359D140CC5631
:101DF000DE4F7883C459D140CB56DE4F8883C55916
:101E0000D140CA56DE4F9883C659D140CD56DE4FD9
:101E1000688179818A819B81C359D1400E94263390
:101E200020E030E040EC50E4C956DE4F6883C759EB
:101E3000D140C856DE4F7883C859D140C756DE4FCF
:101E40008883C959D140C656DE4F9883CA59D140BC
:101E5000C956DE4F688179818A819B81C759D140FB
:101E60000E949733C556DE4F6883CB59D140C45684
:101E7000DE4F7883CC59D140C356DE4F8883CD598D
:101E8000D140C256DE4F9883CE59D140C556DE4F61
:101E9000288139814A815B81CB59D140C156DE4FBF
:101EA0007882CF59D140C056DE4F6882C05AD140A7
:101EB0008981CF55DE4F8883C15AD1408A81CE5562
:101EC000DE4F8883C25AD140C156DE4F6881798186
:101ED0008A819B81CF59D1400E942633762E672E6E
:101EE00089839A8339CACF92DF92EF92FF929B0146
:101EF000AC016BED7FE089EC9FE30E9425336B0121
:101F00007C01C701B601FF90EF90DF90CF900C9459
:101F10000E032F923F924F925F926F927F928F9219
:101F20009F92AF92BF92CF92DF92EF92FF920F9368
:101F30001F93CF93DF93CDB7DEB728970FB6F894F2
:101F4000DEBF0FBECDBF68877F83182F092F9B018F
:101F5000482F592FCA01B9010E940E03362E272E91
:101F60008D839E8348845F80612E702EC301B201F1
:101F70000E94730F4B015C01A501940139822A82F2
:101F80008D818B838E818C8369817A818B819C8109
:101F90000E9497336B017C01C701B60128960FB6EA
:101FA000F894DEBF0FBECDBFDF91CF911F910F918F
:101FB000FF90EF90DF90CF90BF90AF909F908F9069
:101FC0007F906F905F904F903F902F9008954F9229
:101FD0005F926F927F928F929F92AF92BF92CF92B9
:101FE000DF92EF92FF920F931F93CF93DF93CDB7C2
:101FF000DEB72E970FB6F894DEBF0FBECDBF6B01D4
:102000008E879D8729013A01A3019201E982FA8214
:102010000B831C8369817A818B819C810E94F634B9
:102020004601AE84BD84A50194016D837E838F83B8
:1020300098876D817E818F8198850E94973369870B
:102040007A878B879C8769857A858B859C852E9678
:102050000FB6F894DEBF0FBECDBFDF91CF911F91B9
:102060000F91FF90EF90DF90CF90BF90AF909F9037
:102070008F907F906F905F904F9008954F925F92F6
:102080006F927F928F929F92AF92BF92CF92DF9288
:10209000EF92FF920F931F93CF93DF93CDB7DEB7ED
:1020A0002A970FB6F894DEBF0FBECDBF6A87798737
:1020B000182F092F20E030E0A90169837A838B83F0
:1020C0009C8369817A818B819C810E94923318164E
:1020D0000CF059C020E030E040E85FE34A845984C6
:1020E000612E702EC301B2010E94923387FF29C076
:1020F0004201A12EB02EA501940160E070E080E8BD
:102100009FE30E9497336B017C01C701B6010E94D7
:102110003E1090582A960FB6F894DEBF0FBECDBF82
:10212000DF91CF911F910F91FF90EF90DF90CF90B3
:10213000BF90AF909F908F907F906F905F904F90E7
:1021400008958A858D8389858E831F8308876D8195
:102150007E818F8198852A960FB6F894DEBF0FBED8
:10216000CDBFDF91CF911F910F91FF90EF90DF9046
:10217000CF90BF90AF909F908F907F906F905F9027
:102180004F900C94530060E070E0CB01C3CF4F92AE
:102190005F926F927F928F929F92AF92BF92CF92F7
:1021A000DF92EF92FF920F931F93CF93DF938B01F8
:1021B0009C01C901B8010E943E10D62FC72F8C0187
:1021C00060E070E080E291E40E9453002B013C014A
:1021D000A30192018D2E9C2E5801C501B4010E94CD
:1021E00097336B017C01C701B601DF91CF911F913D
:1021F0000F91FF90EF90DF90CF90BF90AF909F90A6
:102200008F907F906F905F904F9008952F923F92A4
:102210004F925F926F927F928F929F92AF92BF92F6
:10222000CF92DF92EF92FF920F931F93CF93DF93A2
:10223000CDB7DEB7CE59D1400FB6F894DEBF0FBE92
:10224000CDBF6B017C0129013A0120E030E0A901FA
:10225000C701B6010E949233811511F40C94481DF8
:1022600020E030E0A901C301B2010E949233811540
:1022700011F40C94421DC301B2010E9409344B01B8
:102280001B01072E000C880B990B0E9441346983B7
:102290007A838B839C8329813A814B815C81C30142
:1022A000B2010E94923320E030E0A90181110C9428
:1022B0005F1DC301B2010E94F134181614F00C9492
:1022C0004E1D20E030E048EC52E4C301B2010E9410
:1022D000923320E030E0A901181614F40C946B1D21
:1022E000C701B6010E94923387FF0EC0C40162E0AD
:1022F00070E00E94633521E030E0019711F42FEF88
:102300003FEF3A8329830EC020E030E0A901C701E6
:10231000B6010E94F13418160CF462C081E090E01E
:102320009A838983F7FAF094F7F8F094A12CB12CF2
:10233000812C912C00E81FE3A214B3040CF455C0C7
:1023400029813A81B901330F880B990B0E944134DE
:1023500089869A860B871C8729853A854B855C85FB
:102360006D877E878F87988B6D857E858F85988911
:102370000E94F634C157DE4F6883CF58D140C05712
:10238000DE4F7883C059D140CF56DE4F8883C15984
:10239000D140CE56DE4F9883C259D140C157DE4F4F
:1023A000688179818A819B81CF58D140C256DE4FA6
:1023B0000FB6F894DEBF0FBECDBFDF91CF911F9156
:1023C0000F91FF90EF90DF90CF90BF90AF909F90D4
:1023D0008F907F906F905F904F903F902F900895D7
:1023E00081E090E09A838983A1CFA70196018D8235
:1023F0009E820F8318876D817E818F8198850E94D0
:10240000F6344B018C019FEFA91AB90A95CFC1018F
:1024100062E070E00E946335019709F4B9C681E07B
:1024200090E09AA789A7F7FAF094F7F8F09420E0E3
:1024300030E0A901C301B2010E94923387FD02C0BE
:102440000C94771D77FA709477F8709481E090E09F
:10245000CD56DE4F99838883C359D14020E030E0C8
:1024600040E85FE3C701B6010E94923387FD95C63D
:1024700020E030E040E85FE3C701B6010E94253369
:102480002AE037ED43E25CE3698F7A8F8B8F9C8F74
:10249000698D7A8D8B8D9C8D0E949733698B7A8B99
:1024A0008B8B9C8B69897A898B899C890E940934E2
:1024B000C356DE4F6883CD59D140C256DE4F788374
:1024C000CE59D140C356DE4F28813981CD59D140F4
:1024D0003E8F2D8F1A8E198E312C212C80E8A82E3C
:1024E0009FE3B92E19821D8290E899872FE32D87EB
:1024F000898D9A8D2D8D3E8D821793070CF479C6A8
:102500003981CD53DF4F3883C35CD0408D81CC53AC
:10251000DF4F8883C45CD0409985CB53DF4F9883CD
:10252000C55CD0402D85CA53DF4F2883C65CD040A0
:10253000CD53DF4F288139814A815B81C35CD04014
:10254000C701B6010E9425338B018FA79BA720E00E
:1025500030E0A901C953DF4F6883C75CD040C8533E
:10256000DF4F1883C85CD040C753DF4F8883C95CF6
:10257000D040C653DF4F9883CA5CD040C953DF4F69
:10258000688179818A819B81C75CD0400E94F13447
:1025900018160CF08FC5C553DF4F3882CB5CD04086
:1025A000C453DF4F2882CC5CD040C353DF4FA88296
:1025B000CD5CD040C253DF4FB882CE5CD040C55313
:1025C000DF4F288139814A815B81CB5CD040C301D8
:1025D000B2010E94F6343981C153DF4F3883CF5C9A
:1025E000D0402D81C053DF4F2883C05DD040398556
:1025F000CF52DF4F3883C15DD0402D85CE52DF4FA3
:102600002883C25DD040C153DF4F288139814A8180
:102610005B81CF5CD040CD52DF4F6883C35DD0403B
:10262000CC52DF4F7883C45DD040CB52DF4F8883DC
:10263000C55DD040CA52DF4F9883C65DD040CD52B1
:10264000DF4F688179818A819B81C35DD0400E9480
:102650009733C952DF4F0883C75DD040C852DF4F60
:102660001883C85DD0403FA5C752DF4F3883C95D8E
:10267000D0402BA5C652DF4F2883CA5DD040C95237
:10268000DF4F288139814A815B81C75DD040C552C7
:10269000DF4F6883CB5DD040C452DF4F7883CC5D81
:1026A000D040C352DF4F8883CD5DD040C252DF4F50
:1026B0009883CE5DD040C552DF4F688179818A8191
:1026C0009B81CB5DD0400E94F634698B7D8B89A3C2
:1026D0009DA320E030E040E05FE3C152DF4F08837C
:1026E000CF5DD040C052DF4F1883C05ED0408FA571
:1026F000CF51DF4F8883C15ED0409BA5CE51DF4FC5
:102700009883C25ED040C152DF4F688179818A814F
:102710009B81CF5DD0400E94F6342981CD51DF4F9F
:102720002883C35ED0403D81CC51DF4F3883C45EE7
:10273000D0402985CB51DF4F2883C55ED0403D85F1
:10274000CA51DF4F3883C65ED040CD51DF4F28815C
:1027500039814A815B81C35ED040C951DF4F6883B4
:10276000C75ED040C851DF4F7883C85ED040C751A4
:10277000DF4F8883C95ED040C651DF4F9883CA5E61
:10278000D040C951DF4F688179818A819B81C75EC2
:10279000D0400E9426336B017C0120E030E040E015
:1027A0005FE38989C551DF4F8883CB5ED0409D8927
:1027B000C451DF4F9883CC5ED04089A1C351DF4F15
:1027C0008883CD5ED0409DA1C251DF4F9883CE5EFD
:1027D000D040C551DF4F688179818A819B81CB5E72
:1027E000D0400E94F634C151DF4F3882CF5ED040D6
:1027F000C051DF4F2882C05FD040CF50DF4FA8824A
:10280000C15FD040CE50DF4FB882C25FD040C151CF
:10281000DF4F288139814A815B81CF5ED040CD5026
:10282000DF4F6883C35FD040CC50DF4F7883C45FF5
:10283000D040CB50DF4F8883C55FD040CA50DF4FB8
:102840009883C65FD040CD50DF4F688179818A81FF
:102850009B81C35FD0400E942633A3019201C950DF
:10286000DF4F6883C75FD040C850DF4F7883C85FB1
:10287000D040C750DF4F8883C95FD040C650DF4F7C
:102880009883CA5FD040C950DF4F688179818A81BF
:102890009B81C75FD0400E94F634C550DF4FC8828D
:1028A000CB5FD040C450DF4FD882CC5FD040C35004
:1028B000DF4FE882CD5FD040C250DF4FF882CE5F5D
:1028C000D040C550DF4F288139814A815B81CB5F81
:1028D000D040C150DF4F6883CF5FD040C050DF4F42
:1028E0007883C050D140CF5FDE4F8883C150D14044
:1028F000CE5FDE4F9883C250D140C150DF4F688118
:1029000079818A819B81CF5FD0400E949733CD5FD0
:10291000DE4F0883C350D140CC5FDE4F1883C450D4
:10292000D1402FA5CB5FDE4F2883C550D1403BA5BA
:10293000CA5FDE4F3883C650D140CD5FDE4F28815D
:1029400039814A815B81C350D140C95FDE4F6883C2
:10295000C750D140C85FDE4F7883C850D140C75FB1
:10296000DE4F8883C950D140C65FDE4F9883CA507E
:10297000D140C95FDE4F688179818A819B81C750D0
:10298000D1400E94F6344B018D8F998F20E030E0CA
:1029900040E05FE3C55FDE4F6883CB50D140C45F4A
:1029A000DE4F9882CC50D140C35FDE4F8883CD503C
:1029B000D140C25FDE4F9883CE50D140C55FDE4F1D
:1029C000688179818A819B81CB50D1400E94F63405
:1029D000C15FDE4F3882CF50D140C05FDE4F2882CA
:1029E000C051D140CF5EDE4FA882C151D140CE5EF2
:1029F000DE4FB882C251D140C15FDE4F288139819C
:102A00004A815B81CF50D140CD5EDE4F6883C35198
:102A1000D140CC5EDE4F7883C451D140CB5EDE4FD7
:102A20008883C551D140CA5EDE4F9883C651D140DC
:102A3000CD5EDE4F688179818A819B81C351D1400F
:102A40000E942633A3019201C95EDE4F6883C751FD
:102A5000D140C85EDE4F7883C851D140C75EDE4F9B
:102A60008883C951D140C65EDE4F9883CA51D14098
:102A7000C95EDE4F688179818A819B81C751D140CF
:102A80000E94F634C55EDE4FC882CB51D140C45E91
:102A9000DE4FD882CC51D140C35EDE4FE882CD51AB
:102AA000D140C25EDE4FF882CE51D140C55EDE4FCE
:102AB000288139814A815B81CB51D140C15EDE4F93
:102AC0006883CF51D140C05EDE4F7883C052D14081
:102AD000CF5DDE4F8883C152D140CE5DDE4F9883FB
:102AE000C252D140C15EDE4F688179818A819B816B
:102AF000CF51D1400E949733CD5DDE4F0883C35242
:102B0000D140CC5DDE4F1883C452D1402FA5CB5DA0
:102B1000DE4F2883C552D1403BA5CA5DDE4F3883C6
:102B2000C652D140CD5DDE4F288139814A815B811B
:102B3000C352D140C95DDE4F6883C752D140C85DE2
:102B4000DE4F7883C852D140C75DDE4F8883C952BB
:102B5000D140C65DDE4F9883CA52D140C95DDE4F79
:102B6000688179818A819B81C752D1400E94F63465
:102B70006B017C01C55DDE4F6883CB52D140C45DE3
:102B8000DE4FD882CC52D140C35DDE4F8883CD5218
:102B9000D140C25DDE4FF882CE52D140C55DDE4FDE
:102BA000288139814A815B81CB52D140C15DDE4FA2
:102BB0003882CF52D140C05DDE4F2882C053D14011
:102BC000CF5CDE4FA882C153D140CE5CDE4FB882CD
:102BD000C253D140C15DDE4F688179818A819B817A
:102BE000CF52D1400E942633A3019201CD5CDE4F2B
:102BF0006883C353D140CC5CDE4F7883C453D1404B
:102C0000CB5CDE4F8883C553D140CA5CDE4F9883CE
:102C1000C653D140CD5CDE4F688179818A819B812A
:102C2000C353D1400E94F6342B013C01C95CDE4FF6
:102C30000883C753D140C85CDE4F1883C853D140C6
:102C40008FA5C75CDE4F8883C953D1409BA5C65C66
:102C5000DE4F9883CA53D140C95CDE4F2881398149
:102C60004A815B81C753D1408981C55CDE4F88832F
:102C7000CB53D1409D81C45CDE4F9883CC53D1406F
:102C80008985C35CDE4F8883CD53D1409D85C25C6E
:102C9000DE4F9883CE53D140C55CDE4F6881798189
:102CA0008A819B81CB53D1400E942633C15CDE4F89
:102CB0006883CF53D140C05CDE4F7883C054D1408D
:102CC000CF5BDE4F8883C154D140CE5BDE4F98830B
:102CD000C254D140C15CDE4F288139814A815B8179
:102CE000CF53D140CD5BDE4F4882C354D140CC5B43
:102CF000DE4F5882C454D140CB5BDE4F6882C5544E
:102D0000D140CA5BDE4F7882C654D140CD5BDE4FE6
:102D1000688179818A819B81C354D1400E94973315
:102D2000C95BDE4F0883C754D140C85BDE4F1883B0
:102D3000C854D1402FA5C75BDE4F2883C954D1406A
:102D40003BA5C65BDE4F3883CA54D140C95BDE4F1A
:102D5000288139814A815B81C754D140C55BDE4FF0
:102D60006883CB54D140C45BDE4F7883CC54D140D0
:102D7000C35BDE4F8883CD54D140C25BDE4F988366
:102D8000CE54D140C55BDE4F688179818A819B81B9
:102D9000CB54D1400E94F6348B018D839983C15B63
:102DA000DE4F8882CF54D140C05BDE4F9882C05541
:102DB000D1408D8DCF5ADE4F8883C155D140998D3A
:102DC000CE5ADE4F9883C255D140C15BDE4F288179
:102DD00039814A815B81CF54D140CD5ADE4F888200
:102DE000C355D140CC5ADE4F9882C455D140CB5AFE
:102DF000DE4F8883C555D140CA5ADE4F9883C655E9
:102E0000D140CD5ADE4F688179818A819B81C3553B
:102E1000D1400E9426332989C95ADE4F2883C755DD
:102E2000D1403D89C85ADE4F3883C855D14029A1C9
:102E3000C75ADE4F2883C955D1403DA1C65ADE4F3F
:102E40003883CA55D140C95ADE4F288139814A8119
:102E50005B81C755D140C55ADE4F6883CB55D14001
:102E6000C45ADE4F7883CC55D140C35ADE4F888395
:102E7000CD55D140C25ADE4F9883CE55D140C55A68
:102E8000DE4F688179818A819B81CB55D1400E9438
:102E900026334B013C01C15ADE4FC882CF55D14089
:102EA000C05ADE4FD882C056D140CF59DE4FE8829B
:102EB000C156D140CE59DE4FF882C256D140C15AD8
:102EC000DE4F288139814A815B81CF55D140CD5970
:102ED000DE4FC882C356D140CC59DE4FD882C4568B
:102EE000D140CB59DE4FE882C556D140CA59DE4F9A
:102EF000F882C656D140CD59DE4F688179818A81EA
:102F00009B81C356D1400E942633C959DE4F688346
:102F1000C756D140C859DE4F7883C856D140C759EB
:102F2000DE4F8883C956D140C659DE4F9883CA56B2
:102F3000D140C959DE4F288139814A815B81C7560A
:102F4000D140C559DE4F8882CB56D140C459DE4F9F
:102F50009882CC56D140C359DE4F6882CD56D140BD
:102F6000C259DE4F7882CE56D140C559DE4F6881B6
:102F700079818A819B81CB56D1400E942633C159E9
:102F8000DE4F6883CF56D140C059DE4F7883C0579B
:102F9000D140CF58DE4F8883C157D140CE58DE4F45
:102FA0009883C257D140C159DE4F288139814A8167
:102FB0005B81CF56D140CD58DE4F0883C357D140F7
:102FC000CC58DE4F1883C457D1408D81CB58DE4F8B
:102FD0008883C557D1409981CA58DE4F9883C65718
:102FE000D140CD58DE4F688179818A819B81C3575A
:102FF000D1400E94263320E030E040EC50E4C95834
:10300000DE4F6883C757D140C858DE4F7883C85712
:10301000D140C758DE4F8883C957D140C658DE4FCC
:103020009883CA57D140C958DE4F688179818A8117
:103030009B81C757D1400E949733C558DE4F6883A4
:10304000CB57D140C458DE4F7883CC57D140C358BA
:10305000DE4F8883CD57D140C258DE4F9883CE577C
:10306000D140C558DE4F288139814A815B81CB57D9
:10307000D140C158DE4F3882CF57D140C058DE4FC3
:103080002882C058D140CF57DE4FA882C158D140C6
:10309000CE57DE4FB882C258D140C158DE4F68814A
:1030A00079818A819B81CF57D1400E942633362E69
:1030B000272E5C01CD56DE4F28813981C359D1407E
:1030C000232B29F1CD57DE4F3882C358D140CC573E
:1030D000DE4F2882C458D140CB57DE4FA882C55856
:1030E000D140CA57DE4FB882C658D140CD57DE4FC7
:1030F000288139814A815B81C358D14060E070E00A
:1031000080E89FE30E949733362E272E5C0129A585
:103110003AA5B901330F880B990B0E944134C95766
:10312000DE4F3882C758D140C857DE4F2882C85872
:10313000D140C757DE4FA882C958D140C657DE4F8D
:10314000B882CA58D140C957DE4F288139814A8197
:103150005B81C758D140C557DE4F6883CB58D140FB
:10316000C457DE4F7883CC58D140C357DE4F888395
:10317000CD58D140C257DE4F9883CE58D140C55765
:10318000DE4F688179818A819B81CB58D140F0C81C
:103190002FEF3FEF3AA729A746C9A701960160E0A4
:1031A00070E080E89FE30E9425332AE037ED43E298
:1031B0005CE36D8B7E8B8F8B988F6D897E898F8979
:1031C000988D0E94973369A37AA38BA39CA369A1CE
:1031D0007AA18BA19CA10E9409346D8F7E8F8F8F65
:1031E00098A38D8D9E8D9195819591099E8F8D8F40
:1031F00071C93DA22EA2AFA2B8A62DA13EA14FA19A
:1032000058A5C301B2010E94F63439813BA72D8134
:103210002CA739853DA72D852EA72BA53CA54DA50F
:103220005EA56FA778AB89AB9AAB6FA578A989A982
:103230009AA90E9497332AE037ED43E25CE36BAB37
:103240007CAB8DAB9EAB6BA97CA98DA99EA90E947E
:10325000F63469A3CB56DE4F7883C559D140CA56A0
:10326000DE4F8883C659D140C956DE4F9883C7596F
:10327000D1402AE037ED43EA5BE389818FAB9D8142
:1032800098AF898589AF9D859AAF6FA978AD89ADD3
:103290009AAD0E9426338B01C756DE4F8883C959E9
:1032A000D140C856DE4F9883C859D14020E030E065
:1032B00040E05FE389A18BAFCB56DE4F9881C559C3
:1032C000D1409CAFCA56DE4F8881C659D1408DAFE0
:1032D000C956DE4F9881C759D1409EAF6BAD7CADCA
:1032E0008DAD9EAD0E94F6343FAE21962FAE219754
:1032F0002296AFAE22972396BFAE239723962CAD8E
:103300003DAD4EAD5FAD239724966FAF24972596C4
:103310007FAF259726968FAF269727969FAF279743
:1033200027966CAD7DAD8EAD9FAD27970E9426335D
:10333000A301920128966FAF289729967FAF29970E
:103340002A968FAF2A972B969FAF2B972B966CAD13
:103350007DAD8EAD9FAD2B970E94F6342C960FAFAE
:103360002C972D961FAF2D97C756DE4F2881C95930
:10337000D1402E962FAF2E97C856DE4F3881C859B0
:10338000D1402F963FAF2F972F962CAD3DAD4EAD30
:103390005FAD2F9760966FAF609761967FAF619733
:1033A00062968FAF629763969FAF639763966CAD9B
:1033B0007DAD8EAD9FAD63970E9497332AE037EDC8
:1033C00043E25CE364966FAF649765967FAF659761
:1033D00066968FAF669767969FAF679767966CAD57
:1033E0007DAD8EAD9FAD67970E94F6344B01898B02
:1033F0009D8B20E030E040E05FE368966FAF689718
:1034000069969FAE69976A968FAF6A976B969FAFE2
:103410006B976B966CAD7DAD8EAD9FAD6B970E943B
:10342000F6346C963FAE6C976D962FAE6D976E9698
:10343000AFAE6E976F96BFAE6F976F962CAD3DADEA
:103440004EAD5FAD6F97A0966FAFA097A1967FAF7F
:10345000A197A2968FAFA297A3969FAFA397A3968B
:103460006CAD7DAD8EAD9FADA3970E942633A301B9
:103470009201A4966FAFA497A5967FAFA597A69645
:103480008FAFA697A7969FAFA797A7966CAD7DAD78
:103490008EAD9FADA7970E94F634A8960FAFA89760
:1034A000A9961FAFA997C756DE4F2881C959D140A9
:1034B000AA962FAFAA97C856DE4F3881C859D14077
:1034C000AB963FAFAB97AB962CAD3DAD4EAD5FAD80
:1034D000AB97AC966FAFAC97AD967FAFAD97AE960E
:1034E0008FAFAE97AF969FAFAF97AF966CAD7DADF8
:1034F0008EAD9FADAF970E9497332AE037ED43E240
:103500005CE3E0966FAFE097E1967FAFE197E296DC
:103510008FAFE297E3969FAFE397E3966CAD7DADF7
:103520008EAD9FADE3970E94F6348B01C356DE4FFC
:103530008883CD59D140C456DE4F9883CC59D140B1
:103540002AE037ED43E25CE38981E4968FAFE497AC
:103550009D81E5969FAFE5978985E6968FAFE697C3
:103560009D85E7969FAFE797E7966CAD7DAD8EADF5
:103570009FADE7970E94263369837D8389879D8766
:10358000E8960FAFE897E9961FAFE997C356DE4F6D
:103590002881CD59D140EA962FAFEA97C456DE4F25
:1035A0003881CC59D140EB963FAFEB97EB962CADE1
:1035B0003DAD4EAD5FADEB97EC963FAEEC97ED9623
:1035C0002FAEED97EE96AFAEEE97EF96BFAEEF97BC
:1035D000EF966CAD7DAD8EAD9FADEF970E9426331B
:1035E000A3019201C158DF4F6883CF57D040C05824
:1035F000DF4F7883C058D040CF57DF4F8883C15802
:10360000D040CE57DF4F9883C258D040C158DF4FCB
:10361000688179818A819B81CF57D0400E94F6349E
:103620002981CD57DF4F2883C358D0403D81CC57E7
:10363000DF4F3883C458D0402985CB57DF4F2883CC
:10364000C558D0403D85CA57DF4F3883C658D04053
:10365000CD57DF4F288139814A815B81C358D040E3
:10366000C957DF4F6883C758D040C857DF4F7883AA
:10367000C858D040C757DF4F8883C958D040C65775
:10368000DF4F9883CA58D040C957DF4F688179818E
:103690008A819B81C758D0400E9497332AE037ED3A
:1036A00043E25CE3C557DF4F6883CB58D040C45733
:1036B000DF4F7883CC58D040C357DF4F8883CD5835
:1036C000D040C257DF4F9883CE58D040C557DF4F08
:1036D000688179818A819B81CB58D0400E94F634E1
:1036E000C856DE4F6883C859D140C756DE4F78832D
:1036F000C959D140C656DE4F8883CA59D140C556F4
:10370000DE4F9883CB59D140C157DF4F8882CF58C5
:10371000D040C057DF4F9882C059D0408989CF56DA
:10372000DF4F8883C159D0409D89CE56DF4F9883A3
:10373000C259D040C157DF4F288139814A815B810E
:10374000CF58D040CD56DF4F8882C359D040CC5699
:10375000DF4F9882C459D040CB56DF4F8883C5597C
:10376000D040CA56DF4F9883C659D040CD56DF4F60
:10377000688179818A819B81C359D0400E94263318
:1037800029A1C956DF4F2883C759D040CB56DE4FF9
:103790003881C559D140C856DF4F3883C859D04009
:1037A000CA56DE4F2881C659D140C756DF4F2883FD
:1037B000C959D040C956DE4F3881C759D140C65685
:1037C000DF4F3883CA59D040C956DF4F288139812D
:1037D0004A815B81C759D040C556DF4F6883CB59BA
:1037E000D040C456DF4F7883CC59D040C356DF4F0A
:1037F0008883CD59D040C256DF4F9883CE59D040F0
:10380000C556DF4F688179818A819B81CB59D04031
:103810000E942633698B7D8B4C01C156DF4F088394
:10382000CF59D040C056DF4F1883C05AD040C3563E
:10383000DE4F8881CD59D140CF55DF4F8883C15AA3
:10384000D040C456DE4F9881CC59D140CE55DF4F81
:103850009883C25AD040C156DF4F288139814A81AE
:103860005B81CF59D040CD55DF4F0883C35AD0403C
:10387000CC55DF4F1883C45AD040CB55DF4F8883D7
:10388000C55AD040CA55DF4F9883C65AD040CD554F
:10389000DF4F688179818A819B81C35AD0400E9421
:1038A0002633C955DF4F6883C75AD040C855DF4F0C
:1038B0007883C85AD040C755DF4F8883C95AD04053
:1038C000C655DF4F9883CA5AD040C955DF4F28816B
:1038D00039814A815B81C75AD0408989C555DF4FFC
:1038E0008883CB5AD0409D89C455DF4F9883CC5AEA
:1038F000D040C355DF4F8882CD5AD040C255DF4FEC
:103900009882CE5AD040C555DF4F688179818A812F
:103910009B81CB5AD0400E942633C155DF4F68832C
:10392000CF5AD040C055DF4F7883C05BD040CF54D2
:10393000DF4F8883C15BD040CE54DF4F9883C25B9A
:10394000D040C155DF4F288139814A815B81CF5AF0
:10395000D040C856DE4F8881C859D140CD54DF4F82
:103960008883C35BD040C756DE4F9881C959D14088
:10397000CC54DF4F9883C45BD040C656DE4F88815D
:10398000CA59D140CB54DF4F8883C55BD040C55660
:10399000DE4F9881CB59D140CA54DF4F9883C65B24
:1039A000D040CD54DF4F688179818A819B81C35B90
:1039B000D0400E94263320E030E040EC50E4C9546F
:1039C000DF4F6883C75BD040C854DF4F7883C85B44
:1039D000D040C754DF4F8883C95BD040C654DF4F07
:1039E0009883CA5BD040C954DF4F688179818A814E
:1039F0009B81C75BD0400E949733C554DF4F6883DB
:103A0000CB5BD040C454DF4F7883CC5BD040C354F1
:103A1000DF4F8883CD5BD040C254DF4F9883CE5BAD
:103A2000D040C554DF4F288139814A815B81CB5B0F
:103A3000D040C154DF4F3882CF5BD040C054DF4FFD
:103A40002882C05CD040CF53DF4FA882C15CD040F9
:103A5000CE53DF4FB882C25CD040C154DF4F688183
:103A600079818A819B81CF5BD0400E942633362E9C
:103A7000272E5C01298D3A8D2F5F3F4F3A8F298F7A
:103A80000C94781260E070E080E89FE30C94BA1127
:103A900060E070E080E090E00C94BA1120E030E04B
:103AA000A901C701B6010E94923387FF02C00C949E
:103AB000071281E090E09AA789A70C941712C7011A
:103AC000B6010E94923387FDE3CF21E030E03AA7B0
:103AD00029A70C941712C701B6010E94923387FFE1
:103AE00002C00C94071281E090E09AA789A7CD56F6
:103AF000DE4F19821882C359D1400C942E122F9296
:103B00003F924F925F926F927F928F929F92AF926D
:103B1000BF92CF92DF92EF92FF920F931F93CF93BA
:103B2000DF93CDB7DEB7CC57D1090FB6F894DEBF1F
:103B30000FBECDBF6B017C0120E030E0A901C701C1
:103B4000B6010E94F13487FD64C02AE037ED43E2FC
:103B50005CE3C701B6010E9497332B013C01C3010E
:103B6000B2010E940934EB967FAF6EAFEB9780E015
:103B700090E0A0E8BFE3E9968CAF9DAFAEAFBFAFDA
:103B8000E997212C312C00E010E0ED961FAEED9767
:103B9000EC961FAEEC97F12CE12CD12CC12CEB96BE
:103BA0008EAD9FADEB97281639060CF44CC0E2960B
:103BB0000FAFE297E3961FAFE397ED969FADED97BA
:103BC000E4969FAFE497EC96AFADEC97E596AFAF78
:103BD000E597E5966CAD7DAD8EAD9FADE597C4588C
:103BE000DF4F0FB6F894DEBF0FBECDBFDF91CF9190
:103BF0001F910F91FF90EF90DF90CF90BF90AF900B
:103C00009F908F907F906F905F904F903F902F90FC
:103C10000895C701B60190582AE037ED43E25CE30E
:103C20000E9497334B015C01C501B4010E94093425
:103C3000EA966FAFEA97EB967FAFEB9780E090E064
:103C4000A0E8BFEB98CF2AE037ED43EA5BE3F982C7
:103C5000EA82DB82CC8269817A818B819C810E949D
:103C600026332B013C012AE037ED43E25CE3FD8281
:103C7000EE82DF82C8866D817E818F8198850E9469
:103C800026334B015C0149865A866B867C862985E2
:103C90003A854B855C854D865E866F86788A6D8514
:103CA0007E858F8598890E94F63420E030E040E8D8
:103CB0005FE3698B7A8B8B8B9C8B69897A898B8983
:103CC0009C890E9426336D8B7E8B8F8B988F2D89DC
:103CD0003E894F89588D6AE077ED83E29CE30E942C
:103CE0009733698F7A8F8B8F9C8F298D3A8D4B8D6F
:103CF0005C8D6D8F7E8F8F8F98A36D8D7E8D8F8D58
:103D000098A10E9426332B013C01F9A2EAA2DBA272
:103D1000CCA229A13AA14BA15CA1FDA2EEA2DFA2F7
:103D2000C8A66DA17EA18FA198A50E94F63420E0BF
:103D300030E040E85FE369A77AA78BA79CA769A555
:103D40007AA58BA59CA50E9426336DA77EA78FA779
:103D500098AB2DA53EA54FA558A96AE077ED83E263
:103D60009CE30E94973349AA5AAA6BAA7CAA29A964
:103D70003AA94BA95CA96DAB7EAB8FAB98AF6DA98F
:103D80007EA98FA998AD0E94263349AE5AAE6BAE7C
:103D90007CAE29AD3AAD4BAD5CAD6DAF7EAF8FAFB4
:103DA00021969FAF219721966CAD7DAD8EAD9FADD5
:103DB00021970E9426332B013C0122968FAE229739
:103DC00023969FAE23972496AFAE24972596BFAE39
:103DD000259725962CAD3DAD4EAD5FAD259726962A
:103DE0008FAE269727969FAE27972896AFAE289737
:103DF0002996BFAE299729966CAD7DAD8EAD9FAD4E
:103E000029970E94F63420E030E040E85FE32A96EC
:103E10006FAF2A972B967FAF2B972C968FAF2C974F
:103E20002D969FAF2D972D966CAD7DAD8EAD9FAD30
:103E30002D970E9426332E966FAF2E972F967FAF29
:103E40002F9760968FAF609761969FAF619761964D
:103E50002CAD3DAD4EAD5FAD61976AE077ED83E28D
:103E60009CE30E94973362966FAF629763967FAF31
:103E7000639764968FAF649765969FAF65976596D5
:103E80002CAD3DAD4EAD5FAD659766964FAE669776
:103E900067965FAE679768966FAE689769967FAED4
:103EA000699769966CAD7DAD8EAD9FAD69970E94A7
:103EB0002633E9962CAD3DAD4EAD5FADE9976A96E0
:103EC0006FAF6A976B967FAF6B976C968FAF6C975F
:103ED0006D969FAF6D976D966CAD7DAD8EAD9FADC0
:103EE0006D970E94F63420E030E040EC50E46E968E
:103EF0006FAF6E976F967FAF6F97A0968FAFA097BB
:103F0000A1969FAFA197A1966CAD7DAD8EAD9FADF3
:103F1000A1970E949733A2966FAFA297A3967FAF07
:103F2000A397A4968FAFA497A5969FAFA597A596A4
:103F30002CAD3DAD4EAD5FADA597A6960FAFA69744
:103F4000A7961FAFA797ED969FADED97A8969FAF49
:103F5000A897EC96AFADEC97A996AFAFA997A996A5
:103F60006CAD7DAD8EAD9FADA9970E9426338B01C0
:103F7000ED968FAFED97EC969FAFEC972AE037ED7B
:103F800043E25CE3E9966CAD7DAD8EAD9FADE99704
:103F90000E94F634AA966FAFAA97AB967FAFAB9705
:103FA000AC968FAFAC97AD969FAFAD97AD962CAD5D
:103FB0003DAD4EAD5FADAD97AE96FFAEAE97AF9651
:103FC000EFAEAF97E096DFAEE097E196CFAEE19728
:103FD000E1966CAD7DAD8EAD9FADE1970E9426332D
:103FE000F62EE72ED82EC92EBFEF2B1A3B0AD7CDBF
:103FF0002F923F924F925F926F927F928F929F92F9
:10400000AF92BF92CF92DF92EF92FF920F931F93E6
:10401000CF93DF93CDB7DEB7C059D1090FB6F8946F
:10402000DEBF0FBECDBF6B017C0120E030E040E879
:104030005FEBC701B6010E94923387FD09C320E000
:1040400030E040E85FE3C701B6010E94F134181682
:104050000CF4FEC220E030E0A901C701B6010E94C5
:10406000F13487FD7CC02AE037ED43E25CE3C70111
:10407000B6010E9497332B013C01C301B2010E949B
:104080000934C757DF4F79836883C958D04080E02F
:1040900090E0A0E8BFE3CB57DF4F88839983AA83E2
:1040A000BB83C558D040212C312C00E010E0C05714
:1040B000DF4F1882C059D040C157DF4F1882CF5808
:1040C000D040F12CE12CD12CC12CC757DF4F888177
:1040D0009981C958D040281639060CF45EC0CF57D4
:1040E000DF4F0883C158D040CE57DF4F1883C258E6
:1040F000D040C057DF4F9881C059D040CD57DF4FD7
:104100009883C358D040C157DF4FA881CF58D040C3
:10411000CC57DF4FA883C458D040CF57DF4F6881BA
:1041200079818A819B81C158D040C057DF4F0FB63B
:10413000F894DEBF0FBECDBFDF91CF911F910F91DD
:10414000FF90EF90DF90CF90BF90AF909F908F90B7
:104150007F906F905F904F903F902F900895C70190
:10416000B60190582AE037ED43E25CE30E949733B2
:104170004B015C01C501B4010E940934C757DF4FF0
:104180006883C958D040C657DF4F7883CA58D0409B
:1041900080E090E0A0E8BFEB7ECFF982EA82DB828C
:1041A000CC8229813A814B815C81FD82EE82DF8263
:1041B000C8866D817E818F8198850E94F6346987DB
:1041C0007A878B879C8729853A854B855C8560E05B
:1041D00070E080E89FE30E9425336D877E878F879C
:1041E000988B6D857E858F8598890E940D022AE0C7
:1041F00037ED43E25CE3698B7A8B8B8B9C8B69890F
:104200007A898B899C890E94F634C557DF4F688371
:10421000CB58D040C457DF4F7883CC58D040C357D9
:10422000DF4F8883CD58D040C257DF4F9883CE5898
:10423000D0402AE037ED43E25CE3CB57DF4F6881A3
:1042400079818A819B81C558D0400E94F6342B0128
:104250003C0120E030E040E05FE36D8B5E8A8F8BB5
:10426000788E6D897E898F89988D0E94F634F98EBB
:10427000EA8EDB8ECC8E298D3A8D4B8D5C8D6D8FC9
:104280007E8F8F8F98A36D8D7E8D8F8D98A10E94CC
:10429000263369A37AA38BA39CA329A13AA14BA19E
:1042A0005CA16DA37EA38FA398A76DA17EA18FA112
:1042B00098A50E94F63469A77AA78BA79CA729A581
:1042C0003AA54BA55CA560E070E080E89FE30E9402
:1042D00025336DA77EA78FA798AB6DA57EA58FA56B
:1042E00098A90E940D022AE037ED43E25CE369AB36
:1042F0007AAB8BAB9CAB69A97AA98BA99CA90E94CC
:10430000F6344B015C014DAA5EAA6FAA78AE2DA9C6
:104310003EA94FA958ADF9AEEAAEDBAECCAE69AD61
:104320007AAD8BAD9CAD0E942633F62EE72ED82EAB
:10433000C92E6DAF7EAF8FAF21969FAF219721968B
:104340002CAD3DAD4EAD5FAD219722966FAF22975C
:1043500023967FAF239724968FAF249725969FAF00
:10436000259725966CAD7DAD8EAD9FAD25970E94AE
:10437000F63426966FAF269727967FAF2797289615
:104380008FAF289729969FAF299729962CAD3DADE1
:104390004EAD5FAD299760E070E080E89FE30E943A
:1043A00025332A966FAF2A972B967FAF2B972C96A3
:1043B0008FAF2C972D969FAF2D972D966CAD7DAD21
:1043C0008EAD9FAD2D970E940D022B013C012E96C4
:1043D0008FAE2E972F969FAE2F976096AFAE6097B9
:1043E0006196BFAE619761962CAD3DAD4EAD5FADB0
:1043F000619762968FAE629763969FAE639764965D
:10440000AFAE64976596BFAE659765966CAD7DADB2
:104410008EAD9FAD65970E9426334B015C01669679
:104420006FAF669767969FAE679768968FAF6897EE
:104430006996BFAE699769962CAD3DAD4EAD5FAD47
:104440006997C557DF4F9881CB58D0406A969FAF88
:104450006A97C457DF4FA881CC58D0406B96AFAF56
:104460006B97C357DF4FB881CD58D0406C96BFAF24
:104470006C97C257DF4F8881CE58D0406D968FAF72
:104480006D976D966CAD7DAD8EAD9FAD6D970E94B5
:1044900026336E968FAE6E976F969FAE6F97A096EF
:1044A000AFAEA097A196BFAEA197A1962CAD3DADA2
:1044B0004EAD5FADA197A2966FAFA297A3967FAFC7
:1044C000A397A4968FAFA497A5969FAFA597A596FF
:1044D0006CAD7DAD8EAD9FADA5970E9426334B018F
:1044E0005C012AE037ED43E25CE3A6964FAEA69767
:1044F000A7965FAEA797A8966FAEA897A9967FAE2E
:10450000A997A9966CAD7DAD8EAD9FADA9970E9480
:10451000F634AA966FAFAA97AB967FAFAB97AC96DF
:104520008FAFAC97AD969FAFAD97AD962CAD3DAD2F
:104530004EAD5FADAD97AE968FAEAE97AF969FAED8
:10454000AF97E096AFAEE097E196BFAEE197E19608
:104550006CAD7DAD8EAD9FADE1970E942633CB57FC
:10456000DF4F288139814A815B81C558D040E2966E
:104570006FAFE297E3967FAFE397E4968FAFE49750
:10458000E5969FAFE597E5966CAD7DAD8EAD9FADA1
:10459000E5970E94F63420E030E040EC50E4E696E7
:1045A0006FAFE697E7967FAFE797E8968FAFE8970C
:1045B000E9969FAFE997E9966CAD7DAD8EAD9FAD65
:1045C000E9970E949733EA966FAFEA97EB967FAF31
:1045D000EB97EC968FAFEC97ED969FAFED97ED963E
:1045E0002CAD3DAD4EAD5FADED97EE960FAFEE97B6
:1045F000EF961FAFEF97C057DF4F9881C059D0405B
:10460000C158DF4F9883CF57D040C157DF4FA881A3
:10461000CF58D040C058DF4FA883C058D040C358AF
:10462000DF4F688179818A819B81CD57D0400E947C
:1046300026338B01C057DF4F8883C059D040C15704
:10464000DF4F9883CF58D040BFEF2B1A3B0A3DCDA8
:1046500000E010E0C057DF4F1882C059D040C1576A
:10466000DF4F1882CF58D0403ACD8F929F92AF92B1
:10467000BF92CF92DF92EF92FF920F931F938B0125
:104680009C01C901B8010E94F81F4B015C01A50102
:1046900094016BED7FE089EC9FE30E9425336B0171
:1046A0007C01C701B6011F910F91FF90EF90DF9041
:1046B000CF90BF90AF909F908F9008952FEF3FEFD6
:1046C000FC01318320830895FC0181E090E020818A
:1046D00031812F3F3F4F11F080E090E008950F931C
:1046E0001F93FC0180819181833691057CF40196B2
:1046F00091838083880F991F880F991FE80FF91FF6
:104700008A019B0102831383248335831F910F91B8
:104710000895FC01808191818F3F980781F09C0171
:104720002150310931832083880F991F880F991FE9
:10473000E80FF91F6281738184819581089560E09B
:1047400070E080E89FEB0895FC01808191818F3FAC
:10475000980759F0880F991F880F991FE80FF91FC4
:104760006281738184819581089560E070E080E8C2
:104770009FEB0895803364F48A328CF096ED980FA5
:104780008BE201C086959A95EAF7817090E00895D2
:1047900021E08E3509F020E090E0822F089580E03E
:1047A000F5CF8B32A1F08D3291F08A3299F08F32B1
:1047B00089F08E3591F021E030E0813211F020E077
:1047C00030E0C901880F991F880F991F089581E073
:1047D00090E0089582E090E0089583E090E00895ED
:1047E0002F923F924F925F926F927F928F929F9201
:1047F000AF92BF92CF92DF92EF92FF920F931F93EF
:10480000CF93DF93CDB7DEB7CE5DD1400FB6F8942E
:10481000DEBF0FBECDBFCD56DE4F8883C359D1401A
:10482000CC56DE4F9883C459D1400FEF1FEFC12CF7
:10483000D12CCD56DE4FE881F981C359D140EC0D22
:10484000FD1DF080F1102CC060E070E080E89FEB6F
:104850000F3F100759F0F801EE0FFF1FEE0FFF1F7B
:10486000EC0FFD1F6381748185819681C252DE4FFA
:104870000FB6F894DEBF0FBECDBFDF91CF911F9171
:104880000F91FF90EF90DF90CF90BF90AF909F90EF
:104890008F907F906F905F904F903F902F900895F2
:1048A00020E2F21204C03FEFC31AD30AC2CF8F2D09
:1048B0000F2C000C990BC0970A9708F4DAC0C601B8
:1048C00001966C019DE2F91285C12181822F022E91
:1048D000000C990BC0970A9718F02E3209F07AC194
:1048E000A1E0B0E0C752DE4FB983A883C95DD140D3
:1048F000212C312C21016AC020E030E040E251E45B
:10490000C201B1010E94F6342B01682EF92EB401C8
:10491000990C880B990B0E944134CB56DE4F48828C
:10492000C559D140CA56DE4F5882C659D140C956E2
:10493000DE4F6882C759D140C856DE4FF882C85949
:10494000D140CB56DE4F288139814A815B81C559E0
:10495000D140C756DE4F6883C959D140C656DE4F95
:104960007883CA59D140C556DE4F8883CB59D14090
:10497000C456DE4F9883CC59D140C756DE4F68816C
:1049800079818A819B81C959D1400E942633C356BF
:10499000DE4F6883CD59D140C256DE4F7883CE5961
:1049A000D140C156DE4F8883CF59D140C056DE4F2B
:1049B0009883C05AD140C356DE4F288039804A8040
:1049C0005B80CD59D140BFEFCB1ADB0ACD56DE4F0D
:1049D000E881F981C359D140EC0DFD1D8081882EFD
:1049E000082E000C9908E0E38E1A9108FAE08F1661
:1049F000910408F481CF8E32E1F42FEFC21AD20A6B
:104A0000BDECFB2E8CEC982E9CEC892E2DE3622EB7
:104A1000CD56DE4FE881F981C359D140EC0DFD1D23
:104A20006081062E000C770B605371096A307105A6
:104A300058F1C752DE4F88819981C95DD140892BD9
:104A400021F057FA509457F85094033611050CF0A2
:104A5000F0CE0F5F1F4FF801EE0FFF1FEE0FFF1F8D
:104A6000DE011196EA0FFB1F2282338244825582B7
:104A7000E0CEC752DE4F1882C95DD140C652DE4F2C
:104A80001882CA5DD14034CF072E000C880B990BD9
:104A90000E944134CF55DE4FF882C15AD140CE55E5
:104AA000DE4F9882C25AD140CD55DE4F8882C35A1C
:104AB000D140CC55DE4F6882C45AD140CF55DE4F2D
:104AC000288139814A815B81C15AD140CB55DE4F63
:104AD0006883C55AD140CA55DE4F7883C65AD14043
:104AE000C955DE4F8883C75AD140C855DE4F9883D9
:104AF000C85AD140CB55DE4F688179818A819B812C
:104B0000C55AD1400E94F634C755DE4F6883C95A52
:104B1000D140C655DE4F7883CA5AD140C555DE4FC5
:104B20008883CB5AD140C455DE4F9883CC5AD140AC
:104B3000C755DE4F288139814A815B81C95AD140EE
:104B4000C201B1010E942633C355DE4F6883CD5A9E
:104B5000D140C255DE4F7883CE5AD140C155DE4F89
:104B60008883CF5AD140C055DE4F9883C05BD14077
:104B7000C355DE4F288039804A805B80CD5AD140B2
:104B80002DEC3CEC4CEC5DE3CF54DE4FF882C15B86
:104B9000D140CE54DE4F9882C25BD140CD54DE4F1F
:104BA0008882C35BD140CC54DE4F6882C45BD14065
:104BB000CF54DE4F688179818A819B81C15BD1406E
:104BC0000E94F634F62E972E882E692E3FEFC31AD8
:104BD000D30A1ECF8F2D0E94BA23892B09F48BC0D4
:104BE00088248A94982C20E030E040E85FEBCA01EA
:104BF000B9010F3F100741F1F80131974F01F8015A
:104C0000EE0FFF1FEE0FFF1F9E012F5F3F4FE20FC2
:104C1000F31F228133814481558160E070E080E898
:104C20009FEB0115110581F0F401EE0FFF1FEE0F50
:104C3000FF1FCE010196E80FF91F62817381848105
:104C40009581D80112974D01BDE2FB1609F44AC0C7
:104C5000EEE2FE16BCF5FAE2FF1609F446C0ABE23E
:104C6000FA16C9F1F3E68F16910454F52FEF821A64
:104C7000920AF401EE0FFF1FEE0FFF1FEC0FFD1F56
:104C8000CB54DE4FE882C55BD140CA54DE4FB882B8
:104C9000C65BD140C954DE4FA882C75BD140C8541F
:104CA000DE4F7882C85BD140CB54DE4F888199813A
:104CB000AA81BB81C55BD14083839483A583B683DE
:104CC0008401B7CDBFE2FB1699F0EEE5FE12CACF24
:104CD0000E94061102C00E942633E62EB72EA82E8F
:104CE000792EC0CF0E942533F8CF0E94F634F5CF3D
:104CF0000E949733F2CF95E7F9160CF09ACDA3E610
:104D0000FA1664F5B4E2FB1609F45AC2E5E2FE169F
:104D10008CF5F1E2FF1609F47BC223E2F21289CD91
:104D20000F3F100709F46FC24801E1E08E1A9108A5
:104D3000F3E68F16910424F6F801EE0FFF1FEE0F35
:104D4000FF1FEC0FFD1F63817481858196818401B3
:104D50000F5F1F4F48010E947F1D2DC0EDE9EF0D31
:104D6000E23108F066CD0E2E000CFF0BEF50F44C34
:104D70000C94773530E4F3125CCD0F3F100709F443
:104D80001AC24801E1E08E1A9108F3E68F169104E9
:104D90000CF096CFF801EE0FFF1FEE0FFF1FEC0F88
:104DA000FD1F638174818581968184010F5F1F4F90
:104DB00048010E94F81FF401EE0FFF1FEE0FFF1FC6
:104DC000EC0FFD1F638374838583968379CF0F3F38
:104DD0001007E9F1F801EE0FFF1FEE0FFF1FEC0FB8
:104DE000FD1F6381748185819681015011090E94A4
:104DF0003E10033611050CF01CCD0F5F1F4FF8015C
:104E0000EE0FFF1FEE0FFF1FEC0FFD1FC754DE4F0D
:104E10006883C95BD140C654DE4F7883CA5BD140FA
:104E2000C554DE4F8883CB5BD140C454DE4F98839A
:104E3000CC5BD140C754DE4F88819981AA81BB8168
:104E4000C95BD14083839483A583B683F2CC60E0B1
:104E500070E080E89FEBCBCF0F3F1007C9F1F8015E
:104E6000EE0FFF1FEE0FFF1FEC0FFD1F638174811C
:104E700085819681015011090E94C71003361105E2
:104E80000CF0D7CC0F5F1F4FF801EE0FFF1FEE0F96
:104E9000FF1FEC0FFD1FC354DE4F6883CD5BD14075
:104EA000C254DE4F7883CE5BD140C154DE4F88833D
:104EB000CF5BD140C054DE4F9883C05CD140C35417
:104EC000DE4F88819981AA81BB81CD5BD140BACF69
:104ED00060E070E080E89FEBCFCF0F3F1007C9F193
:104EE000F801EE0FFF1FEE0FFF1FEC0FFD1F638198
:104EF000748185819681015011090E940E03033649
:104F000011050CF096CC0F5F1F4FF801EE0FFF1F3D
:104F1000EE0FFF1FEC0FFD1FCF53DE4F6883C15C08
:104F2000D140CE53DE4F7883C25CD140CD53DE4FAB
:104F30008883C35CD140CC53DE4F9883C45CD1409E
:104F4000CF53DE4F88819981AA81BB81C15CD1405A
:104F500079CF60E070E080E89FEBCFCF20E030E0D9
:104F600040E85FEB0F3F100769F0F801EE0FFF1FFD
:104F7000EE0FFF1FEC0FFD1F238134814581568109
:104F8000015011096BED7FE089EC9FE30E9425330E
:104F9000CB53DE4F6883C55CD140CA53DE4F788364
:104FA000C65CD140C953DE4F8883C75CD140C8532B
:104FB000DE4F9883C85CD140CB53DE4F6881798146
:104FC0008A819B81C55CD1400E940E030336110586
:104FD0000CF02FCC0F5F1F4FF801EE0FFF1FEE0FED
:104FE000FF1FEC0FFD1FC753DE4F6883C95CD14024
:104FF000C653DE4F7883CA5CD140C553DE4F8883E9
:10500000CB5CD140C453DE4F9883CC5CD140C753B6
:10501000DE4F88819981AA81BB81C95CD14012CFC2
:10502000212C312C80E8482E8FEB582E0F3F100793
:1050300069F0F801EE0FFF1FEE0FFF1FEC0FFD1FD1
:10504000238034804580568001501109C201B1018E
:105050000E940E03C552DE4F6883CB5DD140C25221
:10506000DE4F7883CE5DD140682EF92EA2019101EA
:105070006BED7FE089EC9FE30E942533C353DE4F45
:105080006883CD5CD140C253DE4F7883CE5CD14083
:10509000C153DE4F8883CF5CD140C053DE4F98832D
:1050A000C05DD140C353DE4F688179818A819B8185
:1050B000CD5CD1400E940E03033611050CF0B9CB34
:1050C0000F5F1F4F4801880C991C880C991CDE014A
:1050D00011968A0E9B1ECF52DE4F6883C15DD14070
:1050E000CE52DE4F7883C25DD140CD52DE4F8883F1
:1050F000C35DD140CC52DE4F9883C45DD140CF52C6
:10510000DE4F288139814A815B81C15DD140C55222
:10511000DE4FB881CB5DD140CB52DE4FB883C55D49
:10512000D140C252DE4FE881CE5DD140CA52DE4F3F
:10513000E883C65DD140C952DE4F6882C75DD14069
:10514000C852DE4FF882C85DD140CB52DE4F688135
:1051500079818A819B81C55DD1400E949733D401BA
:1051600012966D937D938D939C93159762CB033626
:1051700011050CF05ECB0F5F1F4FF801EE0FFF1F04
:10518000EE0FFF1FEC0FFD1F8BED9FE0A9E4B0E4D5
:1051900059CE033611050CF04CCB0F5F1F4FF801B1
:1051A000EE0FFF1FEE0FFF1FEC0FFD1F84E598EFC2
:1051B000ADE2B0E447CE60E070E080E89FEBF6CD72
:1051C0000F3F1007D9F0480181E0881A910893E653
:1051D000891691040CF074CDF801EE0FFF1FEE0F4D
:1051E000FF1FEC0FFD1F638174818581968184010F
:1051F0000F5F1F4F48010E943523DDCD60E070E056
:1052000080E89FEBF5CF60E070E080E89FEBA0CDF9
:105210000F3F100769F1480181E0881A910893E671
:10522000891691040CF04CCDF801EE0FFF1FEE0F24
:10523000FF1FEC0FFD1F63817481858196818401BE
:105240000F5F1F4F48010E940934C452DE4F68832C
:10525000CC5DD140C352DE4F7883CD5DD140C45286
:10526000DE4F88819981CC5DD1400E94AF01A3CDF2
:1052700060E070E080E89FEBE3CF2F923F924F9287
:105280005F926F927F928F929F92AF92BF92CF92D6
:10529000DF92EF92FF920F931F93CF93DF93CDB7DF
:1052A000DEB7C656D2400FB6F894DEBF0FBECDBFF4
:1052B0001C01C15ADD4F6883CF55D240C05ADD4F23
:1052C0007883C056D240FC0101900020E9F7319765
:1052D0002F01481A590A0FEF1FEF612C712CE12C96
:1052E000F12CC15ADD4FC880D980CF55D240CE0CA9
:1052F000DF1C64147504B4F17801EE0CFF1CEE0C95
:10530000FF1CEC0EFD1EF70137967F014E01F3E006
:105310008F0E911C560120E2722E8E149F0409F00C
:10532000ADC2F8013196EE0FFF1FEC0DFD1D10828E
:10533000CA59DD4F0FB6F894DEBF0FBECDBFDF9167
:10534000CF911F910F91FF90EF90DF90CF90BF9082
:10535000AF909F908F907F906F905F904F903F9015
:105360002F9008954101860C971CD401BC91C55A19
:10537000DD4FB883CB55D240BD3209F04CC061142B
:10538000710449F0F4018291883229F00E94BA2315
:10539000892B09F49DC15301EFEFAE1ABE0AA41484
:1053A000B5040CF095C1D40111962C91822F022ED8
:1053B000000C990BC0970A9718F02E3209F088C19B
:1053C0008DE2F6018083FFEFEF1AFF0AC15ADD4F2D
:1053D000E881F981CF55D240EE0DFF1DC70101963E
:1053E0007C014A145B0479F0D101AA0DBB1D8C919C
:1053F000282F082E000C330B205331092A30310599
:1054000028F08E3219F080E280837BC02FEFA21A41
:10541000B20A8083DBCFC55ADD4F8881CB55D2409D
:105420008357823088F0C55ADD4F9881CB55D240E2
:10543000933651F0892F8B56823030F0903421F022
:10544000885B823008F062C0C3010196841595051F
:105450000CF03EC1D40111968C91883209F038C10C
:10546000B3016E5F7F4F5B0181E090E04A145B0403
:1054700079F0F101EA0DFB1D2081283229F4019613
:10548000BFEFAB1ABB0AF2CF2932D1F70197C1F7B0
:105490004501861A970A620D731DA401CE01895039
:1054A0009E4F0E94BD35FE01E950FE4FE80DF91DEB
:1054B0001082BE016D567E4FCE0189509E4F0E94D4
:1054C0003D29FE01ED56FE4FD6012191C7010196FF
:1054D000211119C0C55ADD4FE881CB55D240EC935C
:1054E000F2E0EF0EF11CC15ADD4F28813981CF5512
:1054F000D240820F931F20E2DC012C93BFEFAB1A46
:10550000BB0A3501EECE2D937C01DFCFC55ADD4FAE
:10551000E881CB55D240E037B1F4D601EC93F701E6
:105520003196C15ADD4F28813981CF55D240E20FE3
:10553000F31F32E0E30EF11C80E2808353019FEF02
:10554000A91AB90ADECFC55ADD4FA881CB55D24082
:105550008A2F0A2E000C990BC0970A9798F0AE324A
:10556000B1F56114710441F0F4018291082E000C30
:10557000990BC0970A9730F0BFEFEB1AFB0A80E354
:10558000F60180835301C15ADD4FE881F981CF557F
:10559000D240EE0DFF1DC70101967C014A145B0449
:1055A00009F431CFD101AA0DBB1D8C91282F082EF3
:1055B000000C330B205331092A30310518F08E329C
:1055C00009F021CF2FEFA21AB20A8083DCCFC55A8F
:1055D000DD4F9881CB55D2409832C9F4033611057E
:1055E0008CF40F5F1F4FF801EE0FFF1FEE0FFF1F30
:1055F000EC0FFD1F80E090E0A0E2B2E4838394838F
:10560000A583B6835301AFEFAA1ABA0A7ACFC55A57
:10561000DD4FB881CB55D240B93209F04FC0B0E26E
:105620009B2E0F3F100709F446C05801F1E0AF1A56
:10563000B108F501EE0FFF1FEE0FFF1F9E012F5F58
:105640003F4FE20FF31F86819781A085B185C55A30
:10565000DD4F88839983AA83BB83CB55D24020E05A
:1056600030E040E252E4BC01CD010E94923381114E
:105670000BC0902F812F99838A83CE0101960E94BF
:10568000892309811A815ACFC55ADD4F68817981F2
:105690008A819B81CB55D2400E940934F6016083F8
:1056A000F2E0EF0EF11CD60111969C92B2E0CB0E07
:1056B000D11C8501B6CF9FEF8FEFDDCFC55ADD4FEF
:1056C000A881CB55D240E0E2AE2EA13209F48FC0C2
:1056D000C55ADD4F8881CB55D2400E94BA23530171
:1056E000AFEFAA1ABA0A50E2752E892B09F409CF36
:1056F0000F3F100709F4BFC0F801EE0FFF1FEE0FB8
:10570000FF1F9E012F5F3F4FE20FF31F82819381A6
:10571000A481B581CF59DD4F88839983AA83BB8348
:10572000C156D240BC01CD010E940934662E862F9D
:105730000E94D123CB59DD4F8883C556D240CA5928
:10574000DD4F9883C656D240C55ADD4F8881CB5570
:10575000D2400E94D123CB59DD4FA881B981C556D3
:10576000D240A817B907A4F04801B1E08B1A9108FC
:1057700020E030E040E252E4CF59DD4F688179818A
:105780008A819B81C156D2400E949233811166C0AA
:10579000033611050CF0B5CE0F5F1F4F6801CC0C1E
:1057A000DD1CCC0CDD1CFE013196CE0EDF1EC55A71
:1057B000DD4FF881CB55D2406F2FFF0F770B880B51
:1057C000990B0E944134D60112966D937D938D936F
:1057D0009C93159796CEF601B082F2E0EF0EF11C85
:1057E000D6011196AC92B2E0CB0ED11C89010F3FCD
:1057F000100789F1F801EE0FFF1FEE0FFF1F9E014A
:105800002F5F3F4FE20FF31F628173818481958187
:105810000E940934B62E862F0E94D1239801215070
:1058200031090497C1F2033611050CF087CE0F5FE2
:105830001F4FF801EE0FFF1FEE0FFF1FCE01019665
:10584000E80FF91F80E090E0A4E0B2E48283938344
:10585000A483B58373CE0FEF1FEFE9CFF60160820B
:10586000F2E0EF0EF11CD60111967C92B2E0CB0E65
:10587000D11C84013DCF0FEF1FEF8ECFD7019E913A
:105880008E917E916E917D010E940934F5016083B5
:105890007182F2E0AF0EB11C40CDAF92BF92CF92B9
:1058A000DF92EF92FF920F931F93CF93DF93CDB7C9
:1058B000DEB7C456D1090FB6F894DEBF0FBECDBF18
:1058C000182F092F9E012F5F3F4F5901B9010E94E8
:1058D0003D290F931F9382E391E09F938F930E9442
:1058E000F135BF92AF928DE391E09F938F930E9429
:1058F000F135C5010E94F0230FB6F894DEBF0FBE4C
:10590000CDBF6B017C01C701B601CC59DF4F0FB68B
:10591000F894DEBF0FBECDBFDF91CF911F910F91E5
:10592000FF90EF90DF90CF90BF90AF900895299AAD
:1059300085ED8A95F1F700002998089595B1937C3B
:1059400095B984FD2A9A85FD2B9A86FD2C9A87FDB0
:105950002D9A0C94972CCF93C82F0E949E2C8C2F9D
:105960008295807F0E949E2C2D98CF910895289833
:105970000C94AB2C289A0C94AB2C83E30E94B72C8C
:1059800082E30E94B72C88E20E94B72C8EE00E942E
:10599000B72C86E00E94B72C81E00E94B72C8FEDD7
:1059A0009EE20197F1F700C00000089581E00E9497
:1059B000B72C8FED9EE20197F1F700C0000008952B
:1059C000CF93DF93EC018991811103C0DF91CF91D7
:1059D00008950E94BA2CF7CF0F931F93CF93DF93B4
:1059E0009F938F937F936F938AE491E09F938F931C
:1059F0001F9287E08F9310E01F9300E00F930E94A7
:105A00000736E8018DB79EB70A960FB6F8949EBF89
:105A10000FBE8DBF8991811105C0DF91CF911F917C
:105A20000F9108950E94BA2CF5CF0F931F93CF9337
:105A3000DF93CDB7DEB728970FB6F894DEBF0FBE61
:105A4000CDBF8E010F5F1F4F28E0F80111922A95FC
:105A5000E9F74AE0B8010E94CC35C8010E94E02C69
:105A600028960FB6F894DEBF0FBECDBFDF91CF9161
:105A70001F910F910895CF92DF92EF92FF920F93B3
:105A80001F93CF93DF93EC016B018A0179010E9490
:105A9000D62C80E80E94B72CC601C131D10524F074
:105AA000CE010F978C0D9D1D0E94E02C80EC0E9472
:105AB000B72CC7010131110524F0C8010F978E0DD5
:105AC0009F1D0E94E02C80E80E94B72CC131D105B7
:105AD00014F0CFE0D0E000E010E00C171D074CF010
